:020000040800F2
:1000000000500020E1110008CD0F0008D30F0008B8
:10001000D90F0008DF0F0008E50F000800000000FE
:10002000000000000000000000000000EB0F0008CE
:10003000F70F000800000000031000080F10000870
:1000400029120008291200082912000829120008A4
:100050002912000829120008291200082912000894
:100060002912000829120008291200082912000884
:100070002912000829120008291200082912000874
:100080002912000829120008291200082912000864
:100090002912000829120008291200082912000854
:1000A0002912000829120008291200082912000844
:1000B0001D10000829120008291200082912000842
:1000C0002912000829120008291200082912000824
:1000D0002912000829120008291200082912000814
:1000E0002912000829120008291200080000000047
:1000F0000000000000000000000000000000000000
:0C01000000000000000000005FF808F1A3
:10010C0010B5054C237833B9044B13B10448AFF345
:10011C0000800123237010BD9C0000200000000013
:10012C00583B000808B5034B1BB103490348AFF318
:10013C00008008BD00000000A0000020583B000813
:10014C0080B586B002AF0346FB71FB7923F00F0339
:10015C00FB73FB791B01BB73FB7B43F00C03DBB222
:10016C003B72FB7B43F00803DBB27B72BB7B43F03F
:10017C000C03DBB2BB72BB7B43F00803DBB2FB723C
:10018C0007F108026423009304234221034801F081
:10019C00EBFC00BF1037BD4680BD00BF1001002036
:1001AC0080B586B002AF0346FB71FB7923F00F03D9
:1001BC00FB73FB791B01BB73FB7B43F00D03DBB2C1
:1001CC003B72FB7B43F00903DBB27B72BB7B43F0DE
:1001DC000D03DBB2BB72BB7B43F00903DBB2FB72DA
:1001EC0007F108026423009304234221034801F021
:1001FC00BBFC00BF1037BD4680BD00BF1001002006
:10020C0080B500AF3320FFF79BFF3220FFF798FF3C
:10021C00322001F067F82820FFF792FF322001F01E
:10022C0061F80120FFF78CFF322001F05BF806200B
:10023C00FFF786FF322001F055F80C20FFF780FF06
:10024C00322001F04FF80220FFF77AFF322001F044
:10025C0049F88020FFF774FF00BF80BD80B582B0E5
:10026C0000AF786006E07B685A1C7A601B781846F1
:10027C00FFF796FF7B681B78002BF4D100BF00BF03
:10028C000837BD4680BD80B584B000AF786039605A
:10029C007B68012B08D17B68DAB23B68DBB2134474
:1002AC00DBB27F33FB7308E03B68DBB24033DBB27D
:1002BC005BB263F07F035BB2FB73FB7B1846FFF70B
:1002CC003FFF00BF1037BD4680BD000080B500AFBA
:1002DC000E4B1B78013B032B16D801A252F823F0CE
:1002EC00FD02000803030008090300080F030008BF
:1002FC0000F0B4FA08E000F039FA05E000F03CFA3E
:10030C0002E000F03FFA00BF00BF80BD00000020FB
:10031C0080B582B000AF10212D4801F099FA034648
:10032C003B704FF480612A4801F092FA03467B70CF
:10033C004FF48071274801F08BFA0346BB704FF4E1
:10034C000071244801F084FA0346FB700023FB7112
:10035C0036E0FB7908333B4413F8083C012B23D1DE
:10036C00FB791D4AD35C002B1ED1FB79032B1CD8C7
:10037C0001A252F823F000BF950300089D0300086A
:10038C00A5030008AD030008144B01221A700CE001
:10039C00134B01221A7008E0124B01221A7004E070
:1003AC00114B01221A7000E000BFFA79FB79083278
:1003BC003A4412F8081C084AD154FB790133FB71FA
:1003CC00FB79032BC5D900BF00BF0837BD4680BDE4
:1003DC00000C014000080140BC000020B8000020C7
:1003EC00B9000020BA000020BB00002080B500AF8F
:1003FC00FFF78EFF314B1B78DBB2002B10D02F4B4D
:10040C0000221A702E4B1B7803F00303DBB201336E
:10041C00DAB22B4B1A702A4B1B78184600F0B8F93D
:10042C00284B1B78DBB2002B16D0264B00221A70FF
:10043C00234B1B78042B0CD0042B0EDC022B02D08C
:10044C00032B03D009E000F003FB06E000F00AFBED
:10045C0003E000F011FB00E000BF1B4B1B78DBB28C
:10046C00002B16D0184B00221A70154B1B78042B3E
:10047C000CD0042B0EDC022B02D0032B03D009E092
:10048C0000F004FB06E000F00DFB03E000F016FBAF
:10049C0000E000BF0D4B1B78DBB2002B0AD00B4BDE
:1004AC0000221A70064B01221A70054B1B78184655
:1004BC0000F06EF900F048FE00BF80BDB8000020CF
:1004CC0000000020B9000020BA000020BB00002072
:1004DC0090B585B000AF2D4A3B1D92E8030083E830
:1004EC0003000023FB7348E0FA7BFB7B2849895C03
:1004FC00284AD154FB7B5B0010333B4433F80C3C53
:10050C00FC7B1946244801F0A3F903461A46204BFC
:10051C001A55FB7B1E4AD25CFB7B1E49CB5C9A4274
:10052C0005D1FA7BFB7B1A49895C1C4AD154FB7BB5
:10053C001A4AD35C002B14D1FB7B194A32F81330C6
:10054C00632B09D8FB7B164A32F81320013291B287
:10055C00134A22F813100DE0FB7B124A0121D154EF
:10056C0008E0FB7B0E4A002122F81310FB7B0D4A9E
:10057C000021D154FB7B0133FB73FB7B032BB3D9E1
:10058C0000BF00BF1437BD4690BD00BF703B0008D4
:10059C00C4000020C8000020000C0140C000002056
:1005AC00D0000020CC00002098B500AF20212048BE
:1005BC0001F04EF903461C4608211D4801F048F98C
:1005CC0003469C4208D10821194801F070F92021FA
:1005DC00174801F06CF909E001222021144801F0C0
:1005EC004EF901220821124801F049F980211148E5
:1005FC0001F02EF903461C4640210D4801F028F964
:10060C0003469C4208D180210A4801F050F9402150
:10061C00074801F04CF909E001228021054801F05E
:10062C002EF901224021024801F029F900BF98BDA2
:10063C00000C01400010014080B500AF00222021C9
:10064C00084801F01CF90821064801F030F9002295
:10065C004021044801F013F98021034801F027F9E7
:10066C0000BF80BD000C01400010014080B500AF00
:10067C0000220821084801F002F92021064801F067
:10068C0016F900228021054801F0F9F840210248B2
:10069C0001F00DF900BF80BD000C014000100140BD
:1006AC0080B500AF01222021044801F0E8F80122B6
:1006BC000821024801F0E3F800BF80BD000C0140A6
:1006CC0080B500AF01222021044801F0D8F80022A7
:1006DC000821024801F0D3F800BF80BD000C014096
:1006EC0080B500AF00222021044801F0C8F8012297
:1006FC000821024801F0C3F800BF80BD000C014086
:10070C0080B500AF01228021044801F0B8F8012225
:10071C004021034801F0B3F800BF80BD0010014038
:10072C00000C014080B500AF00228021044801F08C
:10073C00A6F801224021034801F0A1F800BF80BDBA
:10074C0000100140000C014080B500AF0122802157
:10075C00044801F094F800224021034801F08FF87E
:10076C0000BF80BD00100140000C014080B500AFFF
:10077C00FFF71AFF00BF80BD80B500AFFFF776FF13
:10078C0000BF80BD80B500AFFFF756FF00BF80BD36
:10079C0080B483B000AF7860034A7B68136000BFFD
:1007AC000C37BD4680BC70470400002080B500AFFC
:1007BC00204B1B681A462049204802F04DFD204B67
:1007CC001B681A461C491F4802F046FD1E4B1B684D
:1007DC001A4619491D4802F03FFD08210120FFF778
:1007EC0052FD1B48FFF73AFD0D210120FFF74BFD91
:1007FC001248FFF733FD00210120FFF744FD154897
:10080C00FFF72CFD07210120FFF73DFD0D48FFF7F9
:10081C0025FD00210220FFF736FD0F48FFF71EFDD6
:10082C0007210220FFF72FFD0848FFF717FD00BF37
:10083C0080BD00BF04000020783B0008EC000020C5
:10084C00D8000020F8000020DC000020040100206B
:10085C007C3B0008843B00088C3B000880B500AF53
:10086C0000226821454801F00AF800228021444802
:10087C0001F005F8434B1B68002B09DB414B1B684F
:10088C005A1E40490A60404A1360FFF739FF1AE0CC
:10089C003E4B1B68002B09DBFFF756FF3B4B1B68DD
:1008AC005A1E3A490A60384A13600CE0384B1B68F0
:1008BC00002B08DB364B1B685A1E35490A60324A3E
:1008CC001360FFF72FFF334B1B68002B09DB314BF9
:1008DC001B685A1E2F490A602F4A1360FFF700FF4E
:1008EC001AE02E4B1B68002B09DB2C4B1B685A1E85
:1008FC002A490A60284A1360FFF7E2FE0CE0284BF5
:10090C001B68002B08DB264B1B685A1E24490A6007
:10091C00214A1360FFF7C4FE214B1B68002B13DA2E
:10092C001C4B1B68002B0FDA1C4B1B68002B0BDAC3
:10093C001C4B1B681A4A13601B4B1B68154A13602F
:10094C001A4B1B68154A13600E4B1B68002B13DAED
:10095C000E4B1B68002B0FDA0D4B1B68002B0BDAB0
:10096C00104B1B68074A13600F4B1B68074A136038
:10097C000E4B1B68064A136000BF80BD000C014083
:10098C000010014008000020D800002010000020BA
:10099C000C0000201C000020DC00002018000020AF
:1009AC00140000202000002028000020240000203B
:1009BC0080B483B000AF7860054A7B681360054A49
:1009CC007B68136000BF0C37BD4680BC704700BF0E
:1009DC00D8000020DC00002080B483B000AF786029
:1009EC007B681B685A1C7B681A607B681B680A2B27
:1009FC0002DD7B6801221A607B681B68054A136064
:100A0C007B681B68044A136000BF0C37BD4680BC72
:100A1C00704700BFD8000020DC00002080B582B0F9
:100A2C0000AF786039607B681B68002B0BDD7B683E
:100A3C001A683B681A607B6800221A603B681B6866
:100A4C001846FFF7B5FF00BF0837BD4680BD000054
:100A5C0080B500AF0248FFF7BFFF00BF80BD00BFED
:100A6C00E000002080B500AF0248FFF7B5FF00BFE3
:100A7C0080BD00BFE400002080B500AF0248FFF746
:100A8C00ABFF00BF80BD00BFE800002080B500AF09
:100A9C0002490348FFF7C2FF00BF80BD20000020C1
:100AAC00E000002080B500AF02490348FFF7B6FF15
:100ABC0000BF80BD24000020E400002080B500AF02
:100ACC0002490348FFF7AAFF00BF80BD28000020A1
:100ADC00E800002080B500AF00F0A2FB00F01EF88B
:100AEC0000F0D8F800F08AF800F05AF80A4801F043
:100AFC00DFFFFFF785FB0A21012000F0CFFA4FF44E
:100B0C007A71052000F0CAFA4FF47A71062000F0D1
:100B1C00C5FAFFF76BFCFCE76401002080B590B0D0
:100B2C0000AF07F1180328220021184602F08CFBB5
:100B3C003B1D00221A605A609A60DA601A61022327
:100B4C00BB610123BB621023FB6202237B63002386
:100B5C00BB634FF46013FB6307F11803184601F0F5
:100B6C005BFB0346002B01D000F07EF90F237B606A
:100B7C000223BB60A023FB604FF480633B61002326
:100B8C007B613B1D0221184601F0C8FD0346002B7A
:100B9C0001D000F069F900BF4037BD4680BD0000B0
:100BAC0080B500AF124B134A1A60114B124A5A60AF
:100BBC000F4B00229A600E4B0022DA600C4B4FF464
:100BCC0080421A610A4B00225A61094B00229A6139
:100BDC00074B0022DA61064B00221A62044800F02F
:100BEC007FFE0346002B01D000F03EF900BF80BD14
:100BFC001001002000540040A086010080B586B092
:100C0C0000AF07F1080300221A605A609A60DA609C
:100C1C003B4600221A605A601D4B4FF080421A600E
:100C2C001B4B4FF6FF125A60194B00229A60184B5F
:100C3C000922DA60164B00221A61154B00229A61C8
:100C4C00134801F0E5FE0346002B01D000F00CF92F
:100C5C004FF48053BB6007F1080319460C4802F0AF
:100C6C0069F80346002B01D000F0FEF800233B602E
:100C7C0000237B603B461946054802F04BFA0346BD
:100C8C00002B01D000F0F0F800BF1837BD4680BD36
:100C9C006401002080B588B000AF07F1100300227A
:100CAC001A605A609A60DA606B4B9B696A4A43F02F
:100CBC0010039361684B9B6903F01003FB60FB68A6
:100CCC00654B9B69644A43F020039361624B9B69BB
:100CDC0003F02003BB60BB685F4B9B695E4A43F02B
:100CEC00040393615C4B9B6903F004037B607B689A
:100CFC00594B9B69584A43F008039361564B9B69C7
:100D0C0003F008033B603B6800222021534800F0AD
:100D1C00B6FD00224FF40071514800F0B0FD0022E6
:100D2C002821504800F0ABFD4FF400533B610023E9
:100D3C007B610123BB6107F110031946484800F0A1
:100D4C0003FC0C233B6102237B610223FB6107F153
:100D5C0010031946414800F0F7FB20233B610123A7
:100D6C007B610023BB610223FB6107F11003194671
:100D7C003A4800F0E9FB4FF400733B6101237B61BF
:100D8C000023BB610223FB6107F1100319463448B1
:100D9C0000F0DAFB28233B6101237B610023BB615C
:100DAC000223FB6107F1100319462E4800F0CCFB1F
:100DBC00002249F2F8012B4800F061FD002280214D
:100DCC00274800F05CFD80233B6101237B610023FD
:100DDC00BB610223FB6107F110031946204800F0A8
:100DEC00B3FB40233B6101237B610023BB610223E6
:100DFC00FB6107F1100319461A4800F0A5FB49F2F4
:100E0C00F8033B6101237B610023BB610223FB617F
:100E1C0007F110031946134800F096FB4FF4826358
:100E2C003B6100237B610123BB6107F11003194671
:100E3C000C4800F089FB4FF440733B6100237B614D
:100E4C000123BB6107F110031946044800F07CFB39
:100E5C0000BF2037BD4680BD001002400008014095
:100E6C0000100140000C014080B400AF72B600BF0E
:100E7C00FEE7000080B485B000AF154B9B69144AA7
:100E8C0043F001039361124B9B6903F00103BB60B8
:100E9C00BB680F4BDB690E4A43F08053D3610C4B9C
:100EAC00DB6903F080537B607B680A4B5B68FB60FB
:100EBC00FB6823F0E063FB60FB6843F00073FB60AE
:100ECC00044AFB68536000BF1437BD4680BC7047B2
:100EDC00001002400000014080B58AB000AF78607D
:100EEC0007F1140300221A605A609A60DA607B687A
:100EFC001B681D4A934232D11C4B9B691B4A43F021
:100F0C0008039361194B9B6903F008033B613B6930
:100F1C004FF440737B611223BB6103233B6207F1E7
:100F2C0014031946124800F00FFB124B5B687B62EE
:100F3C007B6A43F0E0637B627B6A43F002037B6273
:100F4C000C4A7B6A5360094BDB69084A43F4001373
:100F5C00D361064BDB6903F40013FB60FB6800BF35
:100F6C002837BD4680BD00BF005400400010024031
:100F7C00000C01400000014080B584B000AF7860E7
:100F8C007B681B68B3F1804F13D10C4BDB690B4AA8
:100F9C0043F00103D361094BDB6903F00103FB60F0
:100FAC00FB68002200211C2000F097FA1C2000F0A6
:100FBC00B0FA00BF1037BD4680BD00BF0010024024
:100FCC0080B400AFFEE780B400AFFEE780B400AFA2
:100FDC00FEE780B400AFFEE780B400AFFEE780B45C
:100FEC0000AF00BFBD4680BC704780B400AF00BFEF
:100FFC00BD4680BC704780B400AF00BFBD4680BC0E
:10100C00704780B500AF00F051F900BF80BD000003
:10101C0080B500AF024801F09DFD00BF80BD00BF50
:10102C006401002080B586B000AF7860144A154B7F
:10103C00D31A7B617B693B61134B1B68002B02D17C
:10104C00114B124A1A60104B1A687B6813443A69A8
:10105C009A4207D202F0CEF803460C221A604FF0E7
:10106C00FF3309E0084B1B68FB60074B1A687B6871
:10107C001344054A1360FB6818461837BD4680BDFB
:10108C000050002000040000AC01002018020020D9
:10109C0080B400AF00BFBD4680BC704780B483B045
:1010AC0000AF786039607B68002B12DB7B68092B02
:1010BC000FDC3B68094A82FB03125211DB17D21A70
:1010CC0007497B6841F82320064A7B68002142F8D7
:1010DC00231000BF0C37BD4680BC70471F85EB51F9
:1010EC00D8010020B001002080B483B000AF0023F1
:1010FC007B601CE0124A7B6852F82330002B13DB18
:10110C000F4A7B6852F823305A1E0D497B6841F810
:10111C0023200B4A7B6852F82330002B04DC094A4D
:10112C007B68012142F823107B6801337B607B686C
:10113C00092BDFDD00BF00BF0C37BD4680BC7047FC
:10114C00D8010020B001002080B500AF174B5B68C0
:10115C00012B05D1FFF72AFB0A210120FFF79EFF87
:10116C00124B9B68012B05D1FFF7B2F90A21022023
:10117C00FFF794FF0D4B5B69012B06D1FFF7A6F827
:10118C004FF47A710520FFF789FF084B9B69012BFF
:10119C0009D14FF48071064800F089FB4FF47A7145
:1011AC000620FFF77BFF00BF80BD00BFB001002011
:1011BC000008014080B582B000AF78607B681B6886
:1011CC00B3F1804F01D1FFF78FFF00BF0837BD4649
:1011DC0080BD0000FFF75CFF0B480C490C4A002354
:1011EC0002E0D458C4500433C4188C42F9D3094AD1
:1011FC00094C002301E013600432A242FBD301F03E
:10120C00FFFFFFF767FC7047000000209C000020E8
:10121C00FC3B00089C00002014020020FEE70000AC
:10122C0080B500AF084B1B68074A43F010031360EE
:10123C00032000F047F90F2000F008F8FFF71AFE22
:10124C000023184680BD00BF0020024080B582B04C
:10125C0000AF7860124B1A68124B1B7819464FF48A
:10126C007A73B3FBF1F3B2FBF3F3184600F05FF9BA
:10127C000346002B01D001230EE07B680F2B0AD80C
:10128C00002279684FF0FF3000F027F9064A7B689E
:10129C001360002300E0012318460837BD4680BDCB
:1012AC002C000020340000203000002080B400AF5F
:1012BC00054B1B781A46054B1B681344034A1360F5
:1012CC0000BFBD4680BC70473400002000020020E7
:1012DC0080B400AF024B1B681846BD4680BC7047FB
:1012EC000002002080B584B000AF7860FFF7F0FFFB
:1012FC00B8607B68FB60FB68B3F1FF3F05D00A4B1D
:10130C001B781A46FB681344FB6000BFFFF7E0FF35
:10131C000246BB68D31AFA689A42F7D800BF00BFDE
:10132C001037BD4680BD00BF3400002080B485B0AE
:10133C0000AF78607B6803F00703FB600C4BDB6845
:10134C00BB60BA684FF6FF031340BB60FB681A0220
:10135C00BB68134343F0BF6343F40033BB60044AE0
:10136C00BB68D36000BF1437BD4680BC704700BF5C
:10137C0000ED00E080B400AF044BDB681B0A03F007
:10138C0007031846BD4680BC704700BF00ED00E067
:10139C0080B483B000AF0346FB7197F90730002B84
:1013AC000BDBFB7903F01F02064997F907305B0949
:1013BC00012000FA02F241F8232000BF0C37BD4691
:1013CC0080BC704700E100E080B483B000AF0346FE
:1013DC003960FB7197F90730002B0ADB3B68DAB2F6
:1013EC000C4997F907301201D2B20B4483F8002351
:1013FC000AE03B68DAB20849FB7903F00F03043BBF
:10140C001201D2B20B441A7600BF0C37BD4680BC19
:10141C00704700BF00E100E000ED00E080B489B04F
:10142C0000AFF860B9607A60FB6803F00703FB61FA
:10143C00FB69C3F10703042B28BF0423BB61FB69C1
:10144C000433062B02D9FB69033B00E000237B61CC
:10145C004FF0FF32BB6902FA03F3DA43BB681A4060
:10146C007B699A404FF0FF317B6901FA03F3D94352
:10147C007B680B40134318462437BD4680BC70472D
:10148C0080B582B000AF78607B68013BB3F1807FA0
:10149C0001D301230FE00A4A7B68013B53600F2103
:1014AC004FF0FF30FFF790FF054B00229A60044B82
:1014BC0007221A60002318460837BD4680BD00BFBE
:1014CC0010E000E080B582B000AF78607868FFF77C
:1014DC002DFF00BF0837BD4680BD80B586B000AF7C
:1014EC000346B9607A60FB7300237B61FFF742FF10
:1014FC0078617A68B9687869FFF790FF024697F9C6
:10150C000F3011461846FFF75FFF00BF1837BD4676
:10151C0080BD80B582B000AF0346FB7197F90730F0
:10152C001846FFF735FF00BF0837BD4680BD80B5B4
:10153C0082B000AF78607868FFF7A2FF03461846C8
:10154C000837BD4680BD000080B48BB000AF78601A
:10155C00396000237B6200233B6269E101227B6AD4
:10156C0002FA03F3FB613B681B68FA691340BB6129
:10157C00BA69FB699A4240F058813B685B689A4AA9
:10158C0093425ED0984A934275D8984A934258D069
:10159C00964A93426FD8964A934252D0944A9342B9
:1015AC0069D8944A93424CD0924A934263D8924A57
:1015BC00934246D0904A93425DD8122B2AD8122BD4
:1015CC0059D801A252F823F04F160008291600082A
:1015DC003B1600087D1600088316000883160008C9
:1015EC00831600088316000883160008831600086B
:1015FC00831600088316000883160008831600085B
:10160C00831600088316000883160008311600089C
:10161C0045160008794A934213D02CE03B68DB68EE
:10162C003B6229E03B68DB6804333B6224E03B68A7
:10163C00DB6808333B621FE03B68DB680C333B62C2
:10164C001AE03B689B68002B02D104233B6213E039
:10165C003B689B68012B05D108233B627B68FA69C8
:10166C001A6109E008233B627B68FA695A6103E05E
:10167C0000233B6200E000BFBB69FF2B01D87B68F5
:10168C0001E07B6804337B61BB69FF2B02D87B6A6A
:10169C009B0002E07B6A083B9B003B617B691A68FC
:1016AC000F213B6901FA03F3DB431A40396A3B69AA
:1016BC0001FA03F31A437B691A603B685B6803F019
:1016CC008053002B00F0B1804D4B9B694C4A43F08A
:1016DC00010393614A4B9B6903F00103BB60BB6838
:1016EC00484A7B6A9B08023352F82330FB607B6AC2
:1016FC0003F003039B000F2202FA03F3DB43FA68A7
:10170C001340FB607B68404A934213D07B683F4A8E
:10171C0093420DD07B683E4A934207D07B683D4A8A
:10172C00934201D1032306E0042304E0022302E0E8
:10173C00012300E000237A6A02F003029200934036
:10174C00FA681343FB602F497B6A9B080233FA68E3
:10175C0041F823203B685B6803F48013002B06D010
:10176C002D4B9A682C49BB6913438B6006E02A4BBE
:10177C009A68BB69DB43284913408B603B685B6804
:10178C0003F40013002B06D0234BDA682249BB6903
:10179C001343CB6006E0204BDA68BB69DB431E4980
:1017AC001340CB603B685B6803F40033002B06D01E
:1017BC00194B5A681849BB6913434B6006E0164B2A
:1017CC005A68BB69DB43144913404B603B685B6848
:1017DC0003F48033002B21D00F4B1A680E49BB69E0
:1017EC0013430B6021E000BF0000321000003110E9
:1017FC000000221000002110000012100000111037
:10180C00001002400000014000080140000C0140A3
:10181C000010014000140140000401400B4B1A68F9
:10182C00BB69DB43094913400B607B6A01337B6264
:10183C003B681A687B6A22FA03F3002B7FF48EAEA6
:10184C0000BF00BF2C37BD4680BC70470004014070
:10185C0080B485B000AF78600B467B807B689A685B
:10186C007B881340002B02D00123FB7301E0002383
:10187C00FB73FB7B18461437BD4680BC704780B4A5
:10188C0083B000AF78600B467B8013467B707B780F
:10189C00002B03D07A887B681A6103E07B881A04DA
:1018AC007B681A6100BF0C37BD4680BC704780B4A2
:1018BC0085B000AF78600B467B807B68DB68FB6093
:1018CC007A88FB6813401A04FB68D9437B880B4069
:1018DC001A437B681A6100BF1437BD4680BC704741
:1018EC0080B584B000AF78607B68002B01D10123F8
:1018FC002BE17B6893F83D30DBB2002B06D17B6883
:10190C00002283F83C207868FFF7E6FA7B682422F3
:10191C0083F83D207B681B681A687B681B6822F083
:10192C0001021A607B681B681A687B681B6842F4AA
:10193C0000421A607B681B681A687B681B6822F47B
:10194C0000421A6001F032F8F8607B685B68814AEB
:10195C00934207D8FB68804A934294BF012300232B
:10196C00DBB206E0FB687D4A934294BF012300235F
:10197C00DBB2002B01D00123E7E0FB68784AA2FB25
:10198C0003239B0CBB607B681B685B6823F03F01E7
:10199C007B681B68BA680A435A607B681B681B6AC1
:1019AC0023F03F017B685B686A4A934202D8BB68AC
:1019BC00013309E0BB684FF4967202FB03F3694AEA
:1019CC00A2FB03239B0901337A6812680B43136251
:1019DC007B681B68DB6923F44F4222F0FF027B68B3
:1019EC005B685C498B4219D8FB68591E7B685B6845
:1019FC005B00B1FBF3F3591C40F6FC730B40002B5E
:101A0C000AD0FB68591E7B685B685B00B1FBF3F383
:101A1C000133C3F30B0351E004234FE07B689B6855
:101A2C00002B11D1FB68581E7B6859680B465B0074
:101A3C000B44B0FBF3F30133C3F30B03002B0CBFCC
:101A4C0001230023DBB212E0FB68581E7B68596847
:101A5C000B469B000B4499000B44B0FBF3F3013392
:101A6C00C3F30B03002B0CBF01230023DBB2002BB1
:101A7C0001D0012322E07B689B68002B0ED1FB6810
:101A8C00581E7B6859680B465B000B44B0FBF3F3A4
:101A9C000133C3F30B0343F400430FE0FB68581E00
:101AAC007B6859680B469B000B4499000B44B0FBB8
:101ABC00F3F30133C3F30B0343F440437968096830
:101ACC001343CB617B681B681B6823F0C0017B68E8
:101ADC00DA697B681B6A1A437B681B680A431A60C5
:101AEC007B681B689B6823F4034323F0FF037A682D
:101AFC0011697A68D26811437A6812680B43936053
:101B0C007B681B68DB6823F0FF017B685A697B6884
:101B1C009B691A437B681B680A43DA607B681B6805
:101B2C001A687B681B6842F001021A607B6800220D
:101B3C001A647B68202283F83D207B6800221A639C
:101B4C007B68002283F83E20002318461037BD46E0
:101B5C0080BD00BFA08601007F841E00FF083D00F1
:101B6C0083DE1B43D34D621080B588B002AFF860A2
:101B7C007A601A460B467B8113463B81FFF7A8FB24
:101B8C007861FB6893F83D30DBB2202B40F0E080AD
:101B9C007B690093192301227049F86800F064F9FD
:101BAC000346002B01D00223D3E0FB6893F83C30B2
:101BBC00012B01D10223CCE0FB68012283F83C20ED
:101BCC00FB681B681B6803F00103012B07D0FB6843
:101BDC001B681A68FB681B6842F001021A60FB68FC
:101BEC001B681A68FB681B6822F400621A60FB68A9
:101BFC00212283F83D20FB68102283F83E20FB68ED
:101C0C0000221A64FB687A685A62FB683A895A8522
:101C1C00FB685B8D9AB2FB681A85FB68504ADA62E6
:101C2C0079897B693A6AF86800F09CF80346002BC6
:101C3C0001D001238DE000233B61FB681B685B69CD
:101C4C003B61FB681B689B693B613B6966E07A6999
:101C5C00396AF86800F022FA0346002B0DD0FB68B5
:101C6C001B6C042B07D1FB681B681A68FB681B688C
:101C7C0042F400721A6001236BE0FB685B6A1A780D
:101C8C00FB681B681A61FB685B6A5A1CFB685A622A
:101C9C00FB685B8D9BB2013B9AB2FB685A85FB6873
:101CAC001B8D013B9AB2FB681A85FB681B685B694C
:101CBC0003F00403042B1BD1FB681B8D002B17D0E6
:101CCC00FB685B6A1A78FB681B681A61FB685B6AC5
:101CDC005A1CFB685A62FB685B8D9BB2013B9AB243
:101CEC00FB685A85FB681B8D013B9AB2FB681A8511
:101CFC007A69396AF86800F019FA0346002B0DD09E
:101D0C00FB681B6C042B07D1FB681B681A68FB680B
:101D1C001B6842F400721A6001231AE0FB681B8DE9
:101D2C00002B94D1FB681B681A68FB681B6842F493
:101D3C0000721A60FB68202283F83D20FB680022A9
:101D4C0083F83E20FB68002283F83C20002300E04F
:101D5C00022318461837BD4680BD00BF0200100094
:101D6C000000FFFF80B588B002AFF8607A603B607E
:101D7C000B467B81FB68DB6A7B617B69082B06D099
:101D8C007B69012B03D07B6913F5803F08D1FB687D
:101D9C001B681A68FB681B6842F480721A600BE0BF
:101DAC00FB681B6B122B07D1FB681B681A68FB685E
:101DBC001B6842F480721A603B6800937B680022B7
:101DCC004FF00111F86800F04FF80346002B0DD0CE
:101DDC00FB681B681B6803F48073B3F5807F03D129
:101DEC00FB684FF400721A64032335E0FB681B692F
:101DFC00B3F5804F08D17B89DBB21A46FB681B68B0
:101E0C0002F0FE021A611BE07B89DB11DBB203F0EE
:101E1C000603DBB263F00F03DAB2FB681B681A61CE
:101E2C003B687A680E49F86800F098F80346002B76
:101E3C0001D0012310E07B89DAB2FB681B681A61C0
:101E4C003B687A680749F86800F088F80346002B6D
:101E5C0001D0012300E0002318461837BD4680BD91
:101E6C00080001000200010080B584B000AFF860EA
:101E7C00B9603B601346FB7148E03B68B3F1FF3F30
:101E8C0044D0FFF725FA0246BB69D31A3A689A4246
:101E9C0002D33B68002B39D1BB681B0CDBB2012B86
:101EAC000DD1FB681B685B69DA43BB6813409BB2BE
:101EBC00002B0CBF01230023DBB21A460CE0FB689D
:101ECC001B689B69DA43BB6813409BB2002B0CBFA9
:101EDC0001230023DBB21A46FB799A4216D1FB6828
:101EEC0000221A63FB68202283F83D20FB68002245
:101EFC0083F83E20FB681B6C43F02002FB681A64DD
:101F0C00FB68002283F83C20012323E0BB681B0CF8
:101F1C00DBB2012B0DD1FB681B685B69DA43BB6834
:101F2C0013409BB2002B0CBF01230023DBB21A46DB
:101F3C000CE0FB681B689B69DA43BB6813409BB2DF
:101F4C00002B0CBF01230023DBB21A46FB799A420B
:101F5C0093D0002318461037BD4680BD80B584B0A1
:101F6C0000AFF860B9607A603B6071E0FB681B6899
:101F7C005B6903F48063B3F5806F23D1FB681B6846
:101F8C001A68FB681B6842F400721A60FB681B68D5
:101F9C006FF480625A61FB6800221A63FB6820228E
:101FAC0083F83D20FB68002283F83E20FB681B6C05
:101FBC0043F00402FB681A64FB68002283F83C209F
:101FCC00012367E07B68B3F1FF3F41D0FFF780F955
:101FDC0002463B68D31A7A689A4202D37B68002B7C
:101FEC0036D1BB681B0CDBB2012B0CD1FB681B6818
:101FFC005B69DA43BB6813409BB2002B14BF01230F
:10200C000023DBB20BE0FB681B689B69DA43BB68FF
:10201C0013409BB2002B14BF01230023DBB2002B17
:10202C0016D0FB6800221A63FB68202283F83D203F
:10203C00FB68002283F83E20FB681B6C43F02002F7
:10204C00FB681A64FB68002283F83C20012321E022
:10205C00BB681B0CDBB2012B0CD1FB681B685B69EA
:10206C00DA43BB6813409BB2002B14BF012300233F
:10207C00DBB20BE0FB681B689B69DA43BB6813405F
:10208C009BB2002B14BF01230023DBB2002B7FF487
:10209C006DAF002318461037BD4680BD80B584B0A7
:1020AC0000AFF860B9607A6034E0F86800F086F848
:1020BC000346002B01D0012334E0BB68B3F1FF3F92
:1020CC0028D0FFF705F902467B68D31ABA689A4202
:1020DC0002D3BB68002B1DD1FB681B685B6903F046
:1020EC008003802B16D0FB6800221A63FB68202229
:1020FC0083F83D20FB68002283F83E20FB681B6CB4
:10210C0043F02002FB681A64FB68002283F83C2031
:10211C00012307E0FB681B685B6903F08003802BDD
:10212C00C3D1002318461037BD4680BD80B584B09E
:10213C0000AFF860B9607A6034E0F86800F03EF8FF
:10214C000346002B01D0012334E0BB68B3F1FF3F01
:10215C0028D0FFF7BDF802467B68D31ABA689A42BA
:10216C0002D3BB68002B1DD1FB681B685B6903F0B5
:10217C000403042B16D0FB6800221A63FB68202290
:10218C0083F83D20FB68002283F83E20FB681B6C23
:10219C0043F02002FB681A64FB68002283F83C20A1
:1021AC00012307E0FB681B685B6903F00403042B45
:1021BC00C3D1002318461037BD4680BD80B483B010
:1021CC0000AF78607B681B685B6903F48063B3F5D0
:1021DC00806F1BD17B681B686FF480625A617B68CF
:1021EC0000221A637B68202283F83D207B68002242
:1021FC0083F83E207B681B6C43F004027B681A64F6
:10220C007B68002283F83C20012300E00023184661
:10221C000C37BD4680BC704780B586B000AF786087
:10222C007B68002B01D1012372E27B681B6803F0F1
:10223C000103002B00F08780924B5B6803F00C03CA
:10224C00042B0CD08F4B5B6803F00C03082B12D1C2
:10225C008C4B5B6803F48033B3F5803F0BD1894B17
:10226C001B6803F40033002B6CD07B685B68002B7D
:10227C0068D101234CE27B685B68B3F5803F06D1E3
:10228C00804B1B687F4A43F4803313602EE07B68DD
:10229C005B68002B0CD17B4B1B687A4A23F4803390
:1022AC001360784B1B68774A23F4802313601DE07E
:1022BC007B685B68B3F5A02F0CD1724B1B68714A1D
:1022CC0043F4802313606F4B1B686E4A43F48033D6
:1022DC0013600BE06B4B1B686A4A23F4803313606A
:1022EC00684B1B68674A23F4802313607B685B6828
:1022FC00002B13D0FEF7ECFF386108E0FEF7E8FF87
:10230C0002463B69D31A642B01D9032300E25D4BCF
:10231C001B6803F40033002BF0D014E0FEF7D8FF59
:10232C00386108E0FEF7D4FF02463B69D31A642BF0
:10233C0001D90323ECE1534B1B6803F40033002B4E
:10234C00F0D100E000BF7B681B6803F00203002B98
:10235C0063D04C4B5B6803F00C03002B0BD0494B48
:10236C005B6803F00C03082B1CD1464B5B6803F431
:10237C008033002B16D1434B1B6803F00203002B58
:10238C0005D07B681B69012B01D00123C0E13D4BBB
:10239C001B6823F0F8027B685B69DB003949134347
:1023AC000B603AE07B681B69002B20D0364B012276
:1023BC001A60FEF78DFF386108E0FEF789FF0246D0
:1023CC003B69D31A022B01D90323A1E12D4B1B68C6
:1023DC0003F00203002BF0D02A4B1B6823F0F80209
:1023EC007B685B69DB00274913430B6015E0264BC8
:1023FC0000221A60FEF76CFF386108E0FEF768FFF8
:10240C0002463B69D31A022B01D9032380E11D4BF1
:10241C001B6803F00203002BF0D17B681B6803F0F0
:10242C000803002B3AD07B689B69002B19D0174B03
:10243C0001221A60FEF74CFF386108E0FEF748FFF6
:10244C0002463B69D31A022B01D9032360E10D4BE1
:10245C005B6A03F00203002BF0D0012000F0BAFA03
:10246C001CE00A4B00221A60FEF732FF38610FE0C5
:10247C00FEF72EFF02463B69D31A022B08D9032321
:10248C0046E100BF0010024000004242800442427C
:10249C00924B5B6A03F00203002BE9D17B681B684B
:1024AC0003F00403002B00F0A6800023FB758B4B7C
:1024BC00DB6903F08053002B0DD1884BDB69874A15
:1024CC0043F08053D361854BDB6903F08053BB60D1
:1024DC00BB680123FB75824B1B6803F48073002BD4
:1024EC0018D17F4B1B687E4A43F480731360FEF750
:1024FC00EFFE386108E0FEF7EBFE02463B69D31AAB
:10250C00642B01D9032303E1754B1B6803F480731F
:10251C00002BF0D07B68DB68012B06D16F4B1B6A5C
:10252C006E4A43F0010313622DE07B68DB68002BDD
:10253C000CD16A4B1B6A694A23F001031362674B87
:10254C001B6A664A23F0040313621CE07B68DB6899
:10255C00052B0CD1614B1B6A604A43F004031362D8
:10256C005E4B1B6A5D4A43F0010313620BE05B4B4D
:10257C001B6A5A4A23F001031362584B1B6A574AD1
:10258C0023F0040313627B68DB68002B15D0FEF785
:10259C009FFE38610AE0FEF79BFE02463B69D31AA8
:1025AC0041F28832934201D90323B1E04B4B1B6AB1
:1025BC0003F00203002BEED014E0FEF789FE386125
:1025CC000AE0FEF785FE02463B69D31A41F28832D7
:1025DC00934201D903239BE0404B1B6A03F0020397
:1025EC00002BEED1FB7D012B05D13C4BDB693B4A2B
:1025FC0023F08053D3617B68DB69002B00F087806C
:10260C00364B5B6803F00C03082B61D07B68DB69ED
:10261C00022B46D1334B00221A60FEF759FE38616B
:10262C0008E0FEF755FE02463B69D31A022B01D98E
:10263C0003236DE0294B1B6803F00073002BF0D1D2
:10264C007B681B6AB3F5803F08D1244B5B6823F48D
:10265C0000327B689B68214913434B601F4B5B68BE
:10266C0023F474127B68196A7B685B6A0B431B4901
:10267C0013434B601B4B01221A60FEF729FE386195
:10268C0008E0FEF725FE02463B69D31A022B01D95E
:10269C0003233DE0114B1B6803F00073002BF0D0BB
:1026AC0035E0104B00221A60FEF712FE386108E08C
:1026BC00FEF70EFE02463B69D31A022B01D9032307
:1026CC0026E0064B1B6803F00073002BF0D11EE0D4
:1026DC007B68DB69012B07D1012319E00010024054
:1026EC0000700040600042420B4B5B68FB60FB6873
:1026FC0003F480327B681B6A9A4206D1FB6803F4B0
:10270C0070127B685B6A9A4201D0012300E00023BF
:10271C0018461837BD4680BD0010024080B584B005
:10272C0000AF786039607B68002B01D10123D0E0C9
:10273C006A4B1B6803F007033A689A4210D9674B3F
:10274C001B6823F0070265493B6813430B60634B1E
:10275C001B6803F007033A689A4201D00123B8E0E2
:10276C007B681B6803F00203002B20D07B681B687E
:10277C0003F00403002B05D0594B5B68584A43F413
:10278C00E06353607B681B6803F00803002B05D0E3
:10279C00534B5B68524A43F460535360504B5B6835
:1027AC0023F0F0027B689B684D4913434B607B68B8
:1027BC001B6803F00103002B40D07B685B68012B86
:1027CC0007D1474B1B6803F40033002B15D10123B1
:1027DC007FE07B685B68022B07D1414B1B6803F0E1
:1027EC000073002B09D1012373E03D4B1B6803F0F0
:1027FC000203002B01D101236BE0394B5B6823F002
:10280C0003027B685B68364913434B60FEF760FD3F
:10281C00F8600AE0FEF75CFD0246FB68D31A41F251
:10282C008832934201D9032353E02D4B5B6803F0AC
:10283C000C027B685B689B009A42EBD1274B1B68B0
:10284C0003F007033A689A4210D2244B1B6823F01A
:10285C00070222493B6813430B60204B1B6803F0B3
:10286C0007033A689A4201D0012332E07B681B6867
:10287C0003F00403002B08D0194B5B6823F4E062CF
:10288C007B68DB68164913434B607B681B6803F05D
:10289C000803002B09D0124B5B6823F460527B6851
:1028AC001B69DB000E4913434B6000F021F8024614
:1028BC000B4B5B681B0903F00F030A49CB5C22FA34
:1028CC0003F3094A1360094B1B681846FEF7BEFC5C
:1028DC00002318461037BD4680BD00BF00200240C3
:1028EC0000100240943B00082C0000203000002017
:1028FC0080B487B000AF0023FB600023BB600023D3
:10290C007B6100237B6000233B611E4B5B68FB609B
:10291C00FB6803F00C03042B02D0082B03D027E038
:10292C00194B3B6127E0FB689B0C03F00F03174A24
:10293C00D35C7B60FB6803F48033002B10D0114B0D
:10294C005B685B0C03F00103114AD35CBB607B68D2
:10295C000D4A03FB02F2BB68B2FBF3F37B6104E0AC
:10296C007B680C4A02FB03F37B617B693B6102E0F1
:10297C00054B3B6100BF3B6918461C37BD4680BC0C
:10298C00704700BF0010024000127A00AC3B0008F8
:10299C00BC3B000800093D0080B400AF024B1B6833
:1029AC001846BD4680BC70472C00002080B500AF97
:1029BC00FFF7F2FF0246054B5B681B0A03F00703A7
:1029CC000349CB5C22FA03F3184680BD0010024089
:1029DC00A43B000880B485B000AF78600A4B1B683C
:1029EC000A4AA2FB03235B0A7A6802FB03F3FB602F
:1029FC0000BFFB685A1EFA60002BF9D100BF00BF64
:102A0C001437BD4680BC70472C000020D34D62109B
:102A1C0080B582B000AF78607B68002B01D10123B8
:102A2C0041E07B6893F83D30DBB2002B06D17B682C
:102A3C00002283F83C207868FEF79EFA7B6802221D
:102A4C0083F83D207B681A687B680433194610466E
:102A5C0000F05CFA7B68012283F846207B68012237
:102A6C0083F83E207B68012283F83F207B6801229B
:102A7C0083F840207B68012283F841207B68012287
:102A8C0083F842207B68012283F843207B68012273
:102A9C0083F844207B68012283F845207B6801225F
:102AAC0083F83D20002318460837BD4680BD000042
:102ABC0080B485B000AF78607B6893F83D30DBB2B2
:102ACC00012B01D001233AE07B68022283F83D20E0
:102ADC007B681B68DA687B681B6842F00102DA606D
:102AEC007B681B68184A93420ED07B681B68B3F155
:102AFC00804F09D07B681B68144A934204D07B68D2
:102B0C001B68134A934211D17B681B689B6803F0C6
:102B1C000703FB60FB68062B10D07B681B681A68E8
:102B2C007B681B6842F001021A6007E07B681B6837
:102B3C001A687B681B6842F001021A600023184671
:102B4C001437BD4680BC7047002C01400004004087
:102B5C000008004080B584B000AF78607B681B68CB
:102B6C00DB68FB607B681B681B69BB60BB6803F0A0
:102B7C000203002B20D0FB6803F00203002B1BD0B8
:102B8C007B681B686FF002021A617B6801221A775E
:102B9C007B681B689B6903F00303002B03D07868E8
:102BAC0000F098F905E0786800F08BF9786800F08F
:102BBC009AF97B6800221A77BB6803F00403002B98
:102BCC0020D0FB6803F00403002B1BD07B681B6830
:102BDC006FF004021A617B6802221A777B681B680B
:102BEC009B6903F44073002B03D0786800F072F9F2
:102BFC0005E0786800F065F9786800F074F97B6896
:102C0C0000221A77BB6803F00803002B20D0FB6866
:102C1C0003F00803002B1BD07B681B686FF00802C5
:102C2C001A617B6804221A777B681B68DB6903F0E6
:102C3C000303002B03D0786800F04CF905E07868AA
:102C4C0000F03FF9786800F04EF97B6800221A77A3
:102C5C00BB6803F01003002B20D0FB6803F01003BB
:102C6C00002B1BD07B681B686FF010021A617B680D
:102C7C0008221A777B681B68DB6903F44073002B0E
:102C8C0003D0786800F026F905E0786800F019F9AF
:102C9C00786800F028F97B6800221A77BB6803F08B
:102CAC000103002B0CD0FB6803F00103002B07D0B1
:102CBC007B681B686FF001021A617868FEF77AFA7C
:102CCC00BB6803F08003002B0CD0FB6803F080037F
:102CDC00002B07D07B681B686FF080021A61786844
:102CEC0000F07FFABB6803F04003002B0CD0FB68AC
:102CFC0003F04003002B07D07B681B686FF0400289
:102D0C001A61786800F0F8F8BB6803F02003002B18
:102D1C000CD0FB6803F02003002B07D07B681B68EA
:102D2C006FF020021A61786800F052FA00BF103779
:102D3C00BD4680BD80B584B000AF7860396000239B
:102D4C00FB737B6893F83C30012B01D10223B4E078
:102D5C007B68012283F83C207B68022283F83D20AB
:102D6C007B681B689B68BB60BB6823F07703BB6008
:102D7C00BB6823F47F43BB607B681B68BA689A60AE
:102D8C003B681B68B3F5005F3ED0B3F5005F00F203
:102D9C008780B3F5805F00F08680B3F5805F7FD8C5
:102DAC00702B1AD0702B7BD8602B50D0602B77D81F
:102DBC00502B3CD0502B73D8402B58D0402B6FD875
:102DCC00302B64D0302B6BD8202B60D0202B67D8C5
:102DDC00002B5CD0102B5AD062E07B6818683B68E3
:102DEC0099683B685A683B68DB6800F074F97B684B
:102DFC001B689B68BB60BB6843F07703BB607B6858
:102E0C001B68BA689A604FE07B6818683B689968E1
:102E1C003B685A683B68DB6800F05DF97B681B68AF
:102E2C009A687B681B6842F480429A603CE07B683D
:102E3C0018683B6859683B68DB681A4600F0D4F8A0
:102E4C007B681B685021184600F02BF92CE07B683E
:102E5C0018683B6859683B68DB681A4600F0F2F862
:102E6C007B681B686021184600F01BF91CE07B682E
:102E7C0018683B6859683B68DB681A4600F0B4F880
:102E8C007B681B684021184600F00BF90CE07B684E
:102E9C001A683B681B681946104600F002F903E0FB
:102EAC000123FB7300E000BF7B68012283F83D2007
:102EBC007B68002283F83C20FB7B18461037BD460C
:102ECC0080BD80B483B000AF786000BF0C37BD46C6
:102EDC0080BC704780B483B000AF786000BF0C3703
:102EEC00BD4680BC704780B483B000AF786000BF33
:102EFC000C37BD4680BC704780B483B000AF78609F
:102F0C0000BF0C37BD4680BC7047000080B485B054
:102F1C0000AF786039607B681B68FB607B682F4A68
:102F2C0093420BD07B68B3F1804F07D07B682C4A5F
:102F3C00934203D07B682B4A934208D1FB6823F061
:102F4C007003FB603B685B68FA681343FB607B684B
:102F5C00224A93420BD07B68B3F1804F07D07B6839
:102F6C001F4A934203D07B681E4A934208D1FB68E8
:102F7C0023F44073FB603B68DB68FA681343FB6027
:102F8C00FB6823F080023B685B691343FB607B6842
:102F9C00FA681A603B689A687B68DA623B681A6860
:102FAC007B689A627B680D4A934203D13B681A692D
:102FBC007B681A637B6801225A617B681B6903F08A
:102FCC000103002B05D07B681B6923F001027B6891
:102FDC001A6100BF1437BD4680BC7047002C0140FD
:102FEC00000400400008004080B487B000AFF860D7
:102FFC00B9607A60FB681B6A7B61FB681B6A23F013
:10300C000102FB681A62FB689B693B613B6923F018
:10301C00F0033B617B681B013A6913433B617B699D
:10302C0023F00A037B617A69BB6813437B61FB68FD
:10303C003A699A61FB687A691A6200BF1C37BD460F
:10304C0080BC704780B487B000AFF860B9607A601C
:10305C00FB681B6A7B61FB681B6A23F01002FB6830
:10306C001A62FB689B693B613B6923F470433B61CB
:10307C007B681B033A6913433B617B6923F0A00314
:10308C007B61BB681B017A6913437B61FB683A69FE
:10309C009A61FB687A691A6200BF1C37BD4680BC16
:1030AC00704780B485B000AF786039607B689B68EE
:1030BC00FB60FB6823F07003FB603A68FB6813430A
:1030CC0043F00703FB607B68FA689A6000BF143713
:1030DC00BD4680BC704780B487B000AFF860B96063
:1030EC007A603B60FB689B687B617B6923F47F4360
:1030FC007B613B681A027B681A43BB6813437A698D
:10310C0013437B61FB687A699A6000BF1C37BD462C
:10311C0080BC704780B485B000AF786039607B6844
:10312C0093F83C30012B01D1022346E07B6801224D
:10313C0083F83C207B68022283F83D207B681B6867
:10314C005B68FB607B681B689B68BB60FB6823F05B
:10315C007003FB603B681B68FA681343FB607B6879
:10316C001B68FA685A607B681B68164A93420ED03B
:10317C007B681B68B3F1804F09D07B681B68124ACF
:10318C00934204D07B681B68104A93420CD1BB68F5
:10319C0023F08003BB603B685B68BA681343BB6079
:1031AC007B681B68BA689A607B68012283F83D20B3
:1031BC007B68002283F83C20002318461437BD4658
:1031CC0080BC7047002C0140000400400008004007
:1031DC0080B483B000AF786000BF0C37BD4680BCB4
:1031EC00704780B483B000AF786000BF0C37BD4629
:1031FC0080BC7047014B1868704700BF3800002036
:10320C0070B500260C4D0D4C641BA410A64209D1C0
:10321C0000F09CFC00260A4D0A4C641BA410A6422C
:10322C0005D170BD55F8043B98470136EEE755F8CB
:10323C00043B98470136F2E7F43B0008F43B0008E6
:10324C00F43B0008F83B000803460244934200D1CB
:10325C00704703F8011BF9E70EB46FF0004100B59D
:10326C009CB01DAB02900690079104910848094947
:10327C0053F8042B0591006802A9019300F068F83B
:10328C000022029B1A701CB05DF804EB03B070476F
:10329C00380000200802FFFF2DE9F0478E688246B7
:1032AC009E420C4690461F4638D88A8912F4906F7D
:1032BC0032D0256809690133A5EB010965694B44D6
:1032CC0005EB450505EBD5756D109D4238BF1D46C8
:1032DC00530531D5294600F06FFB064650B90C2337
:1032EC004FF0FF30CAF80030A38943F04003A381AC
:1032FC00BDE8F0874A46216900F0CEFAA38923F491
:10330C00906343F08003A38126614E4426603E46C1
:10331C006561A5EB0905A560BE4200D93E46324663
:10332C004146206800F0C6FAA36800209B1BA360EE
:10333C00236833442360DBE72A4600F0B1FB0646E2
:10334C000028E1D15046216900F0CEFAC7E7000011
:10335C002DE9F04F98468B8907461B060D461446FF
:10336C009DB00ED50B6963B9402100F025FB286098
:10337C00286120B90C233B604FF0FF30D1E0402393
:10338C006B610023099320238DF8293030234FF0F3
:10339C000109CDF80C80DFF8A4818DF82A30234682
:1033AC009A4613F8012B0AB1252AF9D1BAEB040B72
:1033BC000BD05B46224629463846FFF76DFF01309D
:1033CC0000F0AA80099A5A4409929AF80030002B0E
:1033DC0000F0A28000234FF0FF32CDE905230AF163
:1033EC00010A049307938DF853301A93544605221F
:1033FC0014F8011B514800F041FA049AD8B9D006D0
:10340C0044BF20238DF85330110744BF2B238DF874
:10341C0053309AF800302A2B15D0544600204FF028
:10342C000A0C079A214611F8013B303B092B4ED967
:10343C00B0B1079214E0A0EB080309FA03F31343AD
:10344C00A2460493D2E7039B191D1B680391002B22
:10345C00BBBF5B4242F0020207930793B8BF0492D2
:10346C0023782E2B0CD163782A2B35D1039B023475
:10347C001A1D1B680392002BB8BF4FF0FF33059346
:10348C00DFF8BCA003225046217800F0F7F940B1D8
:10349C004023A0EB0A0003FA00F0049B0134034321
:1034AC00049314F8011B062226488DF8281000F00E
:1034BC00E5F9002838D0244B1BBB039B073323F0C2
:1034CC00070308330393099B3344099367E70C46BE
:1034DC0001200CFB0232A5E700234FF00A0C194621
:1034EC0001340593204610F8012B303A092A03D9F0
:1034FC00002BC5D00591C3E7044601230CFB012129
:10350C00F0E703AB00932A463846104B04A9AFF3FF
:10351C000080421C0646D6D1AB895B063FF52CAF2A
:10352C0009981DB0BDE8F08F03AB00932A463846CE
:10353C00064B04A900F07CF8EBE700BFBE3B00088B
:10354C00C43B0008C83B000800000000A53200087E
:10355C002DE9F047164699468A680B69074693424F
:10356C00B8BF1346336091F843200C46DDF8208039
:10357C000AB1013333602368990642BF33680233C2
:10358C003360256815F0060506D104F1190AE368C5
:10359C0032689B1AAB4228DC94F84320131E226835
:1035AC0018BF012392062DD44946384604F1430234
:1035BC00C047013020D02368E56803F00603042BD4
:1035CC0018BF002532684FF00006A36808BFAD1A7B
:1035DC00226908BF25EAE5759342C4BF9B1AED1812
:1035EC001A34B5421AD1002008E00123524649464C
:1035FC003846C047013003D14FF0FF30BDE8F087AB
:10360C000135C4E73020E11881F843005A1C94F8C6
:10361C0045102244023382F84310C5E701232246A9
:10362C0049463846C0470130E6D00136D9E700009C
:10363C002DE9FF470F7E9146782F80460C469A461F
:10364C000C9D01F1430207D8622F0AD8002F00F01D
:10365C00D980582F00F0A48004F1420584F8427000
:10366C003AE0A7F16303152BF6D801A151F823F02A
:10367C00D5360008E93600086536000865360008BE
:10368C006536000865360008E9360008653600081E
:10369C00653600086536000865360008F7370008FF
:1036AC0019370008D9370008653600086536000858
:1036BC001938000865360008193700086536000807
:1036CC0065360008E13700082B681A1D1B682A6054
:1036DC0004F1420584F842300123A4E020682968F3
:1036EC00060601F104030AD50E682B60002E03DADE
:1036FC002D23764284F843300A235E4819E00E6885
:10370C0010F0400F2B6018BF36B2EFE72B68206823
:10371C00191D2960010601D51E6802E04606FBD57D
:10372C001E886F2F0CBF08230A235248002184F8EF
:10373C0043106568002DA8BF2168A560A4BF21F0C7
:10374C00040121600EB9002D4DD01546B6FBF3F1E6
:10375C0003FB1167C75D05F8017D3746BB420E467A
:10376C00F4D9082B0BD12368DE0708D523696168CF
:10377C009942DEBF302305F8013C05F1FF35521BA1
:10378C0022614B4621464046CDF800A003AAFFF724
:10379C00DFFE01304CD14FF0FF3004B0BDE8F087B4
:1037AC00344881F845702968236851F8046B296006
:1037BC001D0614D5DF0744BF43F0200323601EB958
:1037CC00236823F0200323601023AFE7236843F022
:1037DC00200323607823284884F84530E3E7590612
:1037EC0048BFB6B2E6E71546BBE72B682668181D3E
:1037FC006169286035061B6801D5196002E0700606
:10380C00FBD51980002315462361BAE72B680021EC
:10381C001A1D2A601D686268284600F02FF808B14E
:10382C00401B606063682361002384F84330A8E781
:10383C002A46494640462369D0470130ABD023681D
:10384C009B0713D4E068039B9842B8BF1846A4E7C3
:10385C000123324649464046D04701309BD00135C2
:10386C00E36803995B1AAB42F2DCEBE7002504F149
:10387C001906F5E7CF3B0008E03B0008034610B5FE
:10388C00C9B202449342184601D1002003E00478E7
:10389C0001338C42F6D110BD0A44914200F1FF3342
:1038AC0000D1704710B511F8014B914203F8014F4C
:1038BC00F9D110BD884210B501EB020402D9844243
:1038CC00234607D8431EA14208D011F8012B03F858
:1038DC00012FF8E7014602448A4200D110BD13F8CB
:1038EC00014D02F8014DF7E738B50546002940D0E7
:1038FC0051F8043C0C1F002BB8BFE41800F010F971
:10390C001C4A136833B9636014602846BDE838401C
:10391C0000F00CB9A34208D9206821188B4201BFD2
:10392C0019685B6809182160EDE71A465B680BB1F2
:10393C00A342FAD911685018A0420BD12068014457
:10394C00501883421160E0D118685B680144116023
:10395C005360DAE702D90C232B60D6E720682118D4
:10396C008B4201BF19685B68091821606360546061
:10397C00CBE738BD0402002070B50E4E0C46316802
:10398C00054611B900F0BCF830602146284600F01D
:10399C00B7F8431C0AD0C41C24F00304A04207D07F
:1039AC00211A284600F0ACF8013001D14FF0FF3459
:1039BC00204670BD080200202DE9F041CD1C25F0F9
:1039CC00030508350C2D38BF0C25002D074601DBEF
:1039DC00A94205D90C2300263B603046BDE8F08196
:1039EC002E4E00F09DF833681C4634BB29463846F1
:1039FC00FFF7C2FF431C04464DD134682646002E07
:103A0C0040D123683146384604EB030800F078F8BF
:103A1C0080453AD1216803356D1A25F00305083528
:103A2C000C2D38BF0C2538462946FFF7A5FF013071
:103A3C002BD023682B4423600EE02268521B1ED42B
:103A4C000B2A16D96119A342256018BF5960636807
:103A5C0008BF316062514B60384604F10B0600F030
:103A6C0065F826F00706231DF21AB6D09B1BA3504F
:103A7C00B3E76268A3420CBF32605A60ECE723469E
:103A8C006468B2E734467668B9E70C2338463B6085
:103A9C0000F04CF8A1E72560DEE700BF040200202F
:103AAC002DE9F041804614460E4621B91146BDE879
:103ABC00F041FFF781BF2AB9FFF716FF25462846CC
:103ACC00BDE8F08100F038F88442074602D8B4EB28
:103ADC00500F12D821464046FFF76EFF05460028CE
:103AEC00EDD0BC422246314628BF3A46FFF7D4FE01
:103AFC0031464046FFF7F8FEE1E73546DFE70000C8
:103B0C0038B50023054D044608462B60FDF78AFAAC
:103B1C00431C02D12B6803B1236038BD0C0200207A
:103B2C00014800F011B800BF10020020014800F05D
:103B3C000CB800BF1002002051F8043C181F002BD9
:103B4C00BCBF0B58C018704770477047F8B500BF22
:103B5C00F8BC08BC9E467047F8B500BFF8BC08BC62
:043B6C009E467047BA
:103B70000100020004000001256400006D6F64650F
:103B800000000000726F616431000000726F6164B8
:103B900032000000000000000000000001020304E9
:103BA00006070809000000000102030402030405DF
:103BB000060708090A0B0C0D0E0F10100102232D29
:103BC000302B2000686C4C00656667454647003026
:103BD0003132333435363738394142434445460073
:103BE0003031323334353637383961626364656673
:043BF00000000000D1
:043BF4003101000893
:043BF8000D010008B3
:103BFC0001000000010000000500000003000000AF
:103C0C000500000005000000030000000500000096
:103C1C0005000000030000000500000000127A00FF
:103C2C0010000000010000003C000020000000001B
:103C3C000000000000000000000000000000000078
:103C4C000000000000000000000000000000000068
:103C5C000000000000000000000000000000000058
:103C6C000000000000000000000000000000000048
:103C7C000000000000000000000000000000000038
:0C3C8C000000000000000000000000002C
:04000005080011E1FD
:00000001FF
