:020000040800F2
:100000000050002075160008991500089F1500087B
:10001000A5150008AB150008B11500080000000088
:10002000000000000000000000000000B7150008FC
:10003000C315000800000000CF150008DB150008FC
:10004000BD160008BD160008BD160008BD16000844
:10005000BD160008BD160008BD160008BD16000834
:10006000BD160008BD160008BD160008BD16000824
:10007000BD160008BD160008BD160008BD16000814
:10008000BD160008BD160008BD160008BD16000804
:10009000BD160008BD160008BD160008BD160008F4
:1000A000BD160008BD160008BD160008BD160008E4
:1000B000E9150008BD160008BD160008BD160008A9
:1000C000BD160008BD160008BD160008BD160008C4
:1000D000BD160008BD160008BD160008BD160008B4
:1000E000BD160008BD160008BD160008000000007F
:1000F0000000000000000000000000000000000000
:0C01000000000000000000005FF808F1A3
:10010C0010B5054C237833B9044B13B10448AFF345
:10011C0000800123237010BDD400002000000000DB
:10012C00EC3F000808B5034B1BB103490348AFF380
:10013C00008008BD00000000D8000020EC3F000843
:10014C0080B582B000AF00237B6092E04D4A7B68A3
:10015C0052F823204C497B6841F823204B4A7B689A
:10016C0052F8232047497B6841F823207B68002BF9
:10017C0008D11021464801F0B5FD03461A46434B01
:10018C001A6025E07B68012B09D14FF4806140484F
:10019C0001F0A8FD03461A463C4B5A6018E07B68F8
:1001AC00022B09D14FF480713A4801F09BFD0346B4
:1001BC001A46364B9A600BE07B68032B08D14FF440
:1001CC000071344801F08EFD03461A462F4BDA605D
:1001DC002C4A7B6852F823202C497B6851F8233039
:1001EC009A4243D1274A7B6852F8232026497B68E0
:1001FC0051F823309A4239D1234A7B6852F8232094
:10020C0025497B6851F823309A4217D01E4A7B68E7
:10021C0052F8232020497B6841F823201E4A7B6832
:10022C0052F82330002B21D11C4B4FF4FA721A6078
:10023C001B4A7B68012142F8231017E0174B1B68FF
:10024C00013B164A1360154B1B68002B0ED1134B48
:10025C004FF4FA721A60104A7B6852F82330002B64
:10026C0004D10F4A7B68012142F823107B680133CB
:10027C007B607B68032B7FF769AF00BF00BF08373B
:10028C00BD4680BD10000020200000200000002092
:10029C00000C01400008014030000020400000200C
:1002AC00F000002080B500AF0021012000F08BFB96
:1002BC00024800F073FB00BF80BD00BF0440000883
:1002CC0080B500AF0021012000F07DFB024800F05A
:1002DC0065FB00BF80BD00BF1040000880B500AFBB
:1002EC0001222021024801F014FD00BF80BD00BF97
:1002FC000008014080B500AF00222021024801F027
:10030C0008FD00BF80BD00BF0008014080B500AFF4
:10031C005E4B1B68032B40F0B58000F0C5F85C4BBE
:10032C001B680A3B132B00F2AE8001A252F823F09B
:10033C00BF0300080D0400084F04000893040008D4
:10034C009304000893040008930400089304000825
:10035C009304000893040008930400089304000815
:10036C009304000893040008930400089304000805
:10037C009304000893040008930400088D030008FC
:10038C00444B1A68444B1B681A44444B1B689A42F2
:10039C0007D0FFF7A3FFFFF793FF414B00221A6032
:1003AC0071E0FFF7A7FFFFF77DFF3D4B01221A60BD
:1003BC0069E03C4B1B68202B16D0202B1CDC1E2B21
:1003CC0002D01F2B08D017E000F0E4FC00F016FD63
:1003DC00344B1F221A600FE000F0CCFC00F0FCFC48
:1003EC00304B20221A6007E000F0B4FC00F0E2FC75
:1003FC002C4B1E221A6000BF254B1D221A6042E0B6
:10040C00284B1B681E2B05D1244B1B680133234A38
:10041C00136012E0234B1B681F2B05D11D4B1B686F
:10042C0001331C4A136008E01E4B1B68202B04D1BF
:10043C00194B1B680133184A1360154B1D221A60A7
:10044C0021E0184B1B681E2B05D1144B1B68013B7C
:10045C00124A136012E0134B1B681F2B05D10D4B76
:10046C001B68013B0B4A136008E00E4B1B68202BEA
:10047C0004D1094B1B68013B074A1360044B1D2236
:10048C001A6000E000BF00BF80BD00BF4801002023
:10049C00480000205800002054000020500000208C
:1004AC005C0000206000002080B500AF2A4B1B6868
:1004BC001A462A492A4803F019F92A4B1B681A468E
:1004CC002649294803F012F9284B1B681A46234980
:1004DC00274803F00BF90021022000F074FA25489C
:1004EC0000F05CFA0321022000F06DFA224800F0C3
:1004FC0055FA0221022000F066FA194800F04EFA73
:10050C000621022000F05FFA1C4800F047FA09218E
:10051C00022000F058FA1A4800F040FA0821022094
:10052C0000F051FA124800F039FA0C21022000F0C8
:10053C004AFA144800F032FA0F21022000F043FA74
:10054C000F4800F02BFA0E21022000F03CFA06486E
:10055C0000F024FA00BF80BD500000201C400008B1
:10056C0000010020580000200C0100205400002045
:10057C0018010020204000082440000828400008F2
:10058C002C4000083040000880B500AF564B1B686B
:10059C00012B40F0A580554B1B68143B042B00F23B
:1005AC009A8001A252F823F0C9050008D105000871
:1005BC000F06000853060008910600084B4B152245
:1005CC001A6088E000F0E6FB00F0F4FB484B1A6878
:1005DC00484B1B68D31A484A1360484B1A68454B62
:1005EC001B68D31A464A1360424B1A68404B1B686F
:1005FC009A4269DB3D4B16221A603E4B00221A6070
:10060C0062E000F0B7FB00F0D5FB3E4B1A68394BAB
:10061C001B68D31A384A1360384B1A68354B1B6861
:10062C00D21A334B1B68D31A354A1360314B1A68F4
:10063C00344B1B689A4249DB2C4B17221A602D4B0A
:10064C0000221A6042E000F0D9FB00F083FB2B4B38
:10065C001A68284B1B68D31A274A1360244B1A6854
:10066C00244B1B68D31A264A1360224B1A68204B62
:10067C001B689A422CDB1D4B18221A601D4B002262
:10068C001A6025E000F0A8FB00F064FB1D4B1A6813
:10069C00184B1B68D31A1A4A1360184B1A68154B5F
:1006AC001B68D21A124B1B68D31A134A1360114BD6
:1006BC001A68144B1B689A420CDB0C4B15221A60FF
:1006CC000C4B00221A6005E000BF04E000BF02E002
:1006DC0000BF00E000BF074B1B680133054A1360E5
:1006EC0000F012F800BF80BD48010020440000203B
:1006FC005800002050010020240100205000002050
:10070C00280100205400002080B500AF07210220F2
:10071C0000F059F91A4800F041F90521022000F0C7
:10072C0052F9184800F03AF9174B1B681A4617494A
:10073C00174802F0DBFF174B1B681A461349164883
:10074C0002F0D4FF0021012000F03DF9134800F025
:10075C0025F90621012000F036F90D4800F01EF9AC
:10076C000021022000F02FF90D4800F017F90621A6
:10077C00022000F028F9084800F010F900BF80BDF5
:10078C00344000083C400008240100204040000890
:10079C002C010020280100203801002044400008D2
:1007AC004C40000880B500AF0C4B1B68042B12D1D9
:1007BC0000F018F80A4B1B68222B02D0232B05D013
:1007CC000AE000F0C7FA00F019FB05E000F0F2FABD
:1007DC0000F0E0FA00E000BF00BF80BD480100203F
:1007EC004C00002080B500AF0021012000F0EBF898
:1007FC00094800F0D3F80021022000F0E4F8074883
:10080C0000F0CCF80421022000F0DDF8044800F0E0
:10081C00C5F800BF80BD00BF544000085C40000814
:10082C006440000880B500AF044B1B68022B03D159
:10083C0000F05AFA00F004F800BF80BD4801002017
:10084C0080B500AF0021012000F0BDF8094800F090
:10085C00A5F80021022000F0B6F8074800F09EF839
:10086C000421022000F0AFF8044800F097F800BF14
:10087C0080BD00BF70400008784000088040000830
:10088C0080B586B002AF0346FB71FB7923F00F03F2
:10089C00FB73FB791B01BB73FB7B43F00C03DBB2DB
:1008AC003B72FB7B43F00803DBB27B72BB7B43F0F8
:1008BC000C03DBB2BB72BB7B43F00803DBB2FB72F5
:1008CC0007F108026423009304234221034801F03A
:1008DC0095FB00BF1037BD4680BD00BF60010020F6
:1008EC0080B586B002AF0346FB71FB7923F00F0392
:1008FC00FB73FB791B01BB73FB7B43F00D03DBB27A
:10090C003B72FB7B43F00903DBB27B72BB7B43F096
:10091C000D03DBB2BB72BB7B43F00903DBB2FB7292
:10092C0007F108026423009304234221034801F0D9
:10093C0065FB00BF1037BD4680BD00BF60010020C5
:10094C0080B500AF3320FFF79BFF3220FFF798FFF5
:10095C00322000F011FF2820FFF792FF322000F028
:10096C000BFF0120FFF78CFF322000F005FF062063
:10097C00FFF786FF322000F0FFFE0C20FFF780FF10
:10098C00322000F0F9FE0220FFF77AFF322000F04F
:10099C00F3FE8020FFF774FF00BF80BD80B582B0EE
:1009AC0000AF786006E07B685A1C7A601B781846AA
:1009BC00FFF796FF7B681B78002BF4D100BF00BFBC
:1009CC000837BD4680BD80B584B000AF7860396013
:1009DC007B68012B08D17B68DAB23B68DBB213442D
:1009EC00DBB27F33FB7308E03B68DBB24033DBB236
:1009FC005BB263F07F035BB2FB73FB7B1846FFF7C4
:100A0C003FFF00BF1037BD4680BD000080B500AF72
:100A1C00FFF796FB994B1B68042B00F2268101A271
:100A2C0052F823F0450A00082D0B00085D0B000856
:100A3C007F0B0008010C000800210120FFF7C3FF09
:100A4C008F48FFF7ABFF00210220FFF7BCFF8D485A
:100A5C00FFF7A4FF00F062F98B4B1B68012B06D04B
:100A6C0001218A4801F03EF90346012B0FD1864B38
:100A7C0000221A60864B1B680133854A13604FF4C1
:100A8C000071824801F05DF97C4B01221A607E4BAB
:100A9C005B68012B06D002217C4801F023F9034648
:100AAC00012B0AD1784B00225A60794B1B68013319
:100ABC00774A1360714B02221A60734B9B68012BAF
:100ACC0006D00421714801F00DF90346012B0FD11A
:100ADC006D4B00229A604FF400716C4801F031F9B3
:100AEC006B4B1B6801336A4A1360644B03221A6018
:100AFC00654BDB68012B07D00821644801F0F2F844
:100B0C000346012B40F0A8805F4B0022DA605B4B60
:100B1C0004221A605E4B1B6801335D4A13609BE034
:100B2C00FFF7F2FD584B1B68012B40F09780564B9A
:100B3C0000221A604FF40071544801F002F9544B32
:100B4C001B680133524A13604C4B00221A6085E03B
:100B5C004D4B1B68012B40F083804B4B00221A60DD
:100B6C004FF40071494801F0ECF8444B00221A6034
:100B7C0076E0454B1B68012B0ED1434B00221A60CB
:100B8C00444B1B68002B07D04FF400713F4801F019
:100B9C00D8F83A4B00221A603B4B5B68012B0AD108
:100BAC00394B00225A603C4B0A221A604FF40071F8
:100BBC00364801F0C6F8344B9B68012B0AD1324BF6
:100BCC0000229A60344B0B221A604FF400712F48AC
:100BDC0001F0B7F82C4BDB68012B43D12A4B0022D8
:100BEC00DA602D4B0C221A604FF40071274801F08B
:100BFC00A8F837E0244B1B68012B0AD1224B0022AA
:100C0C001A604FF40071214801F09BF81B4B002235
:100C1C001A601D4B5B68012B26D11B4B00225A60BE
:100C2C001E4B1B68002B0BD11D4B23221A604FF45B
:100C3C000071164801F085F8184B01221A6013E078
:100C4C00174B22221A604FF40071104801F079F80A
:100C5C00124B00221A6007E000BF06E000BF04E060
:100C6C0000BF02E000BF00E000BF094B1B68632B14
:100C7C0002DD074B00221A6000BF80BD4801002036
:100C8C008840000890400008F0000020001001404F
:100C9C00440100205C000020480000204C01002092
:100CAC004C00002080B500AF0B4B1B681A460B495B
:100CBC000B4802F01BFD08210120FFF784FE0948B8
:100CCC00FFF76CFE0D210120FFF77DFE0448FFF7B6
:100CDC0065FE00BF80BD00BF48010020A440000895
:100CEC0054010020A840000880B500AF0022082164
:100CFC00084801F00EF82021064801F022F80022E5
:100D0C008021054801F005F84021024801F019F84E
:100D1C0000BF80BD000C01400010014080B500AF49
:100D2C0001222021094800F0F4FF01220821074884
:100D3C0000F0EFFF01228021054800F0EAFF0122BC
:100D4C004021024800F0E5FF00BF80BD000C0140CF
:100D5C000010014080B500AF01222021044800F0B2
:100D6C00D8FF01220821024800F0D3FF00BF80BD4C
:100D7C00000C014080B500AF01222021044800F096
:100D8C00C8FF00220821024800F0C3FF00BF80BD4D
:100D9C00000C014080B500AF00222021044800F077
:100DAC00B8FF01220821024800F0B3FF00BF80BD4C
:100DBC00000C014080B500AF01228021044800F0F6
:100DCC00A8FF01224021034800F0A3FF00BF80BD13
:100DDC0000100140000C014080B500AF00228021C2
:100DEC00044800F096FF01224021034800F091FFD7
:100DFC0000BF80BD00100140000C014080B500AF69
:100E0C0001228021044800F084FF00224021034885
:100E1C0000F07FFF00BF80BD00100140000C0140BE
:100E2C0080B500AF4FF40071024800F08AFF00BF9C
:100E3C0080BD00BF0010014080B500AF00F03AFC4F
:100E4C0000F046F800F000F900F0B2F800F082F87B
:100E5C00FFF776FD164802F075F80A220A211548AC
:100E6C0000F04CFA4FF47A720321134800F046FA62
:100E7C004FF47A720121114800F040FA0A220A213B
:100E8C000F4800F03BFA4FF47A7228210D4800F01D
:100E9C0035FA4FF47A7228210B4800F02FFA0A2207
:100EAC0002210A4800F02AFA00F088FAFCE700BF99
:100EBC00B4010020190A0008950500082D0E000841
:100ECC001903000831080008B1070008B10C00082C
:100EDC0080B590B000AF07F1180328220021184606
:100EEC0002F0FCFB3B1D00221A605A609A60DA602B
:100EFC001A610223BB610123BB621023FB62022334
:100F0C007B630023BB634FF46013FB6307F118038F
:100F1C00184601F0CBFB0346002B01D000F088F9FA
:100F2C000F237B600223BB60A023FB604FF4806324
:100F3C003B6100237B613B1D0221184601F038FE0A
:100F4C000346002B01D000F073F900BF4037BD46BB
:100F5C0080BD000080B500AF124B134A1A60114BD4
:100F6C00124A5A600F4B00229A600E4B0022DA6034
:100F7C000C4B4FF480421A610A4B00225A61094B08
:100F8C0000229A61074B0022DA61064B00221A629A
:100F9C00044800F0EFFE0346002B01D000F048F9A6
:100FAC0000BF80BD6001002000540040A0860100FD
:100FBC0080B586B000AF07F1080300221A605A60B2
:100FCC009A60DA603B4600221A605A601D4B4FF063
:100FDC0080421A601B4B41F63F725A60194B00223B
:100FEC009A60184B0922DA60164B00221A61154BD5
:100FFC0000229A61134801F055FF0346002B01D0E3
:10100C0000F016F94FF48053BB6007F10803194642
:10101C000C4802F0D9F80346002B01D000F008F977
:10102C0000233B6000237B603B461946054802F0D9
:10103C00BBFA0346002B01D000F0FAF800BF1837BA
:10104C00BD4680BDB401002080B588B000AF07F16B
:10105C00100300221A605A609A60DA606B4B9B692D
:10106C006A4A43F010039361684B9B6903F01003C9
:10107C00FB60FB68654B9B69644A43F020039361FA
:10108C00624B9B6903F02003BB60BB685F4B9B69A1
:10109C005E4A43F0040393615C4B9B6903F00403C9
:1010AC007B607B68594B9B69584A43F008039361FA
:1010BC00564B9B6903F008033B603B6800222021E0
:1010CC00534800F026FE00224FF40071514800F006
:1010DC0020FE00222821504800F01BFE4FF4005344
:1010EC003B6100237B610123BB6107F110031946AF
:1010FC00484800F073FC0C233B6102237B61022304
:10110C00FB6107F110031946414800F067FC2023EE
:10111C003B6101237B610023BB610223FB6107F16F
:10112C00100319463A4800F059FC4FF400733B6128
:10113C0001237B610023BB610223FB6107F11003D8
:10114C001946344800F04AFC28233B6101237B619B
:10115C000023BB610223FB6107F1100319462E48E3
:10116C0000F03CFC002249F2F8012B4800F0D1FDC4
:10117C0000228021274800F0CCFD80233B61012315
:10118C007B610023BB610223FB6107F1100319464D
:10119C00204800F023FC40233B6101237B610023AA
:1011AC00BB610223FB6107F1100319461A4800F0DA
:1011BC0015FC49F2F8033B6101237B610023BB6101
:1011CC000223FB6107F110031946134800F006FCDB
:1011DC004FF482633B6100237B610123BB6107F108
:1011EC00100319460C4800F0F9FB4FF440733B61B7
:1011FC0000237B610123BB6107F1100319460448EE
:10120C0000F0ECFB00BF2037BD4680BD0010024053
:10121C000008014000100140000C014080B582B074
:10122C0000AF786000F00AF800BF0837BD4680BDFB
:10123C0080B400AF72B600BFFEE7000080B483B08C
:10124C0000AF00237B6048E02A497A6813469B0074
:10125C0013449B000B4404331B68002B13D025490B
:10126C007A6813469B0013449B000B4404331B68A1
:10127C00591E20487A6813469B0013449B00034474
:10128C000433196026E01B497A6813469B0013440B
:10129C009B000B440833196816487A6813469B0068
:1012AC0013449B0003440433196012497A681346B3
:1012BC009B0013449B000B440C331B780133D8B2B6
:1012CC000C497A6813469B0013449B000B440C3367
:1012DC0002461A707B6801337B60074B1B781A46F9
:1012EC007B689342B0DB00BF00BF0C37BD4680BCAF
:1012FC00704700BFFC010020C402002080B485B000
:10130C0000AFF860B9607A60294B1B78092B0AD8BA
:10131C00274B1B781946274A0B469B000B449B0016
:10132C001344FA681A60224B1B781846BB68224A91
:10133C00A2FB0323DA081F4903469B0003449B00CE
:10134C000B4404331A601A4B1B7818467B681A4AF4
:10135C00A2FB0323DA08174903469B0003449B00B6
:10136C000B4408331A60124B1B781946114A0B4672
:10137C009B000B449B0013440C3300221A700C4B43
:10138C001A780B4B1B78194610460A4A0B469B00E1
:10139C000B449B00134410331860054B1B7801332E
:1013AC00DAB2034B1A7000BF1437BD4680BC7047CD
:1013BC00C4020020FC010020CDCCCCCC80B582B086
:1013CC0000AF00237B602BE01B497A6813469B001F
:1013DC0013449B000B440C331B78002B1DD0164977
:1013EC007A6813469B0013449B000B441B68984778
:1013FC0011497A6813469B0013449B000B440C3331
:10140C001B78013BD8B20C497A6813469B001344F5
:10141C009B000B440C3302461A707B6801337B60D3
:10142C00064B1B781A467B689342CDDB00BF00BF8E
:10143C000837BD4680BD00BFFC010020C40200205F
:10144C0080B485B000AF154B9B69144A43F001037F
:10145C009361124B9B6903F00103BB60BB680F4B9C
:10146C00DB690E4A43F08053D3610C4BDB6903F00C
:10147C0080537B607B680A4B5B68FB60FB6823F0E6
:10148C00E063FB60FB6843F00073FB60044AFB689D
:10149C00536000BF1437BD4680BC7047001002403B
:1014AC000000014080B58AB000AF786007F11403EA
:1014BC0000221A605A609A60DA607B681B681D4AC9
:1014CC00934232D11C4B9B691B4A43F00803936136
:1014DC00194B9B6903F008033B613B694FF4407364
:1014EC007B611223BB6103233B6207F11403194692
:1014FC00124800F073FA124B5B687B627B6A43F014
:10150C00E0637B627B6A43F002037B620C4A7B6A7A
:10151C005360094BDB69084A43F40013D361064B53
:10152C00DB6903F40013FB60FB6800BF2837BD4682
:10153C0080BD00BF0054004000100240000C014070
:10154C000000014080B584B000AF78607B681B68F8
:10155C00B3F1804F13D10C4BDB690B4A43F0010301
:10156C00D361094BDB6903F00103FB60FB680022CC
:10157C0000211C2000F0FBF91C2000F014FA00BF25
:10158C001037BD4680BD00BF0010024080B400AFD4
:10159C00FEE780B400AFFEE780B400AFFEE780B496
:1015AC0000AFFEE780B400AFFEE780B400AF00BF31
:1015BC00BD4680BC704780B400AF00BFBD4680BC48
:1015CC00704780B400AF00BFBD4680BC704780B58B
:1015DC0000AF00F0B5F800BF80BD000080B500AFD3
:1015EC00024801F001FD00BF80BD00BFB401002026
:1015FC0080B586B000AF7860144A154BD31A7B6166
:10160C007B693B61134B1B68002B02D1114B124AB7
:10161C001A60104B1A687B6813443A699A4207D2D5
:10162C0002F032F803460C221A604FF0FF3309E047
:10163C00084B1B68FB60074B1A687B681344054A10
:10164C001360FB6818461837BD4680BD005000205B
:10165C0000040000C8020020E002002080B400AFAB
:10166C0000BFBD4680BC7047FFF7F8FF0B480C4924
:10167C000C4A002302E0D458C4500433C4188C42E2
:10168C00F9D3094A094C002301E013600432A24249
:10169C00FBD301F0FFFFFFF7CFFB704700000020EA
:1016AC00D400002018410008D4000020E0020020E3
:1016BC00FEE7000080B500AF084B1B68074A43F0FB
:1016CC0010031360032000F047F90F2000F008F816
:1016DC00FFF7B6FE0023184680BD00BF0020024075
:1016EC0080B582B000AF7860124B1A68124B1B7831
:1016FC0019464FF47A73B3FBF1F3B2FBF3F31846CC
:10170C0000F05FF90346002B01D001230EE07B684B
:10171C000F2B0AD8002279684FF0FF3000F027F920
:10172C00064A7B681360002300E001231846083743
:10173C00BD4680BD640000206C00002068000020C5
:10174C0080B400AF054B1B781A46054B1B6813443D
:10175C00034A136000BFBD4680BC70476C0000207C
:10176C00CC02002080B400AF024B1B681846BD466B
:10177C0080BC7047CC02002080B584B000AF78608C
:10178C00FFF7F0FFB8607B68FB60FB68B3F1FF3FCD
:10179C0005D00A4B1B781A46FB681344FB6000BF4C
:1017AC00FFF7E0FF0246BB68D31AFA689A42F7D8F3
:1017BC0000BF00BF1037BD4680BD00BF6C000020CD
:1017CC0080B485B000AF78607B6803F00703FB60E2
:1017DC000C4BDB68BB60BA684FF6FF031340BB6071
:1017EC00FB681A02BB68134343F0BF6343F4003336
:1017FC00BB60044ABB68D36000BF1437BD4680BCD5
:10180C00704700BF00ED00E080B400AF044BDB6814
:10181C001B0A03F007031846BD4680BC704700BF87
:10182C0000ED00E080B483B000AF0346FB7197F984
:10183C000730002B0BDBFB7903F01F02064997F9ED
:10184C0007305B09012000FA02F241F8232000BFA7
:10185C000C37BD4680BC704700E100E080B483B01B
:10186C0000AF03463960FB7197F90730002B0ADB98
:10187C003B68DAB20C4997F907301201D2B20B442B
:10188C0083F800230AE03B68DAB20849FB7903F0DD
:10189C000F03043B1201D2B20B441A7600BF0C3773
:1018AC00BD4680BC704700BF00E100E000ED00E0E9
:1018BC0080B489B000AFF860B9607A60FB6803F05F
:1018CC000703FB61FB69C3F10703042B28BF042347
:1018DC00BB61FB690433062B02D9FB69033B00E0B7
:1018EC0000237B614FF0FF32BB6902FA03F3DA434A
:1018FC00BB681A407B699A404FF0FF317B6901FA53
:10190C0003F3D9437B680B40134318462437BD4679
:10191C0080BC704780B582B000AF78607B68013BBB
:10192C00B3F1807F01D301230FE00A4A7B68013BAE
:10193C0053600F214FF0FF30FFF790FF054B002253
:10194C009A60044B07221A60002318460837BD46DC
:10195C0080BD00BF10E000E080B582B000AF7860C1
:10196C007868FFF72DFF00BF0837BD4680BD80B5F6
:10197C0086B000AF0346B9607A60FB7300237B61CD
:10198C00FFF742FF78617A68B9687869FFF790FFD2
:10199C00024697F90F3011461846FFF75FFF00BF5C
:1019AC001837BD4680BD80B582B000AF0346FB71D1
:1019BC0097F907301846FFF735FF00BF0837BD46CB
:1019CC0080BD80B582B000AF78607868FFF7A2FF69
:1019DC00034618460837BD4680BD000080B48BB066
:1019EC0000AF7860396000237B6200233B6269E1C1
:1019FC0001227B6A02FA03F3FB613B681B68FA69FC
:101A0C001340BB61BA69FB699A4240F058813B684C
:101A1C005B689A4A93425ED0984A934275D8984A2A
:101A2C00934258D0964A93426FD8964A934252D0DA
:101A3C00944A934269D8944A93424CD0924A934226
:101A4C0063D8924A934246D0904A93425DD8122B67
:101A5C002AD8122B59D801A252F823F0E31A000805
:101A6C00BD1A0008CF1A0008111B0008171B00082C
:101A7C00171B0008171B0008171B0008171B000872
:101A8C00171B0008171B0008171B0008171B000862
:101A9C00171B0008171B0008171B0008171B000852
:101AAC00C51A0008D91A0008794A934213D02CE0C1
:101ABC003B68DB683B6229E03B68DB6804333B62D4
:101ACC0024E03B68DB6808333B621FE03B68DB6863
:101ADC000C333B621AE03B689B68002B02D1042359
:101AEC003B6213E03B689B68012B05D108233B62EA
:101AFC007B68FA691A6109E008233B627B68FA6922
:101B0C005A6103E000233B6200E000BFBB69FF2B7E
:101B1C0001D87B6801E07B6804337B61BB69FF2BD8
:101B2C0002D87B6A9B0002E07B6A083B9B003B610E
:101B3C007B691A680F213B6901FA03F3DB431A40F6
:101B4C00396A3B6901FA03F31A437B691A603B68F3
:101B5C005B6803F08053002B00F0B1804D4B9B6908
:101B6C004C4A43F0010393614A4B9B6903F0010318
:101B7C00BB60BB68484A7B6A9B08023352F823302F
:101B8C00FB607B6A03F003039B000F2202FA03F352
:101B9C00DB43FA681340FB607B68404A934213D0E6
:101BAC007B683F4A93420DD07B683E4A934207D0F4
:101BBC007B683D4A934201D1032306E0042304E0F1
:101BCC00022302E0012300E000237A6A02F0030200
:101BDC0092009340FA681343FB602F497B6A9B0881
:101BEC000233FA6841F823203B685B6803F48013E6
:101BFC00002B06D02D4B9A682C49BB6913438B6084
:101C0C0006E02A4B9A68BB69DB43284913408B607A
:101C1C003B685B6803F40013002B06D0234BDA6897
:101C2C002249BB691343CB6006E0204BDA68BB69E1
:101C3C00DB431E491340CB603B685B6803F4003305
:101C4C00002B06D0194B5A681849BB6913434B60DB
:101C5C0006E0164B5A68BB69DB43144913404B60D2
:101C6C003B685B6803F48033002B21D00F4B1A6860
:101C7C000E49BB6913430B6021E000BF000032101A
:101C8C000000311000002210000021100000121082
:101C9C00000011100010024000000140000801403B
:101CAC00000C0140001001400014014000040140F0
:101CBC000B4B1A68BB69DB43094913400B607B6A09
:101CCC0001337B623B681A687B6A22FA03F3002BB0
:101CDC007FF48EAE00BF00BF2C37BD4680BC704772
:101CEC000004014080B485B000AF78600B467B8067
:101CFC007B689A687B881340002B02D00123FB730E
:101D0C0001E00023FB73FB7B18461437BD4680BCF7
:101D1C00704780B483B000AF78600B467B8013466D
:101D2C007B707B78002B03D07A887B681A6103E088
:101D3C007B881A047B681A6100BF0C37BD4680BCD7
:101D4C00704780B485B000AF78600B467B807B68B1
:101D5C00DB68FB607A88FB6813401A04FB68D94384
:101D6C007B880B401A437B681A6100BF1437BD4651
:101D7C0080BC704780B584B000AF78607B68002B66
:101D8C0001D101232BE17B6893F83D30DBB2002BB2
:101D9C0006D17B68002283F83C207868FFF782FB31
:101DAC007B68242283F83D207B681B681A687B685B
:101DBC001B6822F001021A607B681B681A687B683A
:101DCC001B6842F400421A607B681B681A687B68C7
:101DDC001B6822F400421A6001F032F8F8607B684C
:101DEC005B68814A934207D8FB68804A934294BF50
:101DFC0001230023DBB206E0FB687D4A934294BFCB
:101E0C0001230023DBB2002B01D00123E7E0FB68A8
:101E1C00784AA2FB03239B0CBB607B681B685B6846
:101E2C0023F03F017B681B68BA680A435A607B68E1
:101E3C001B681B6A23F03F017B685B686A4A93420C
:101E4C0002D8BB68013309E0BB684FF4967202FB01
:101E5C0003F3694AA2FB03239B0901337A681268D6
:101E6C000B4313627B681B68DB6923F44F4222F03F
:101E7C00FF027B685B685C498B4219D8FB68591E72
:101E8C007B685B685B00B1FBF3F3591C40F6FC7399
:101E9C000B40002B0AD0FB68591E7B685B685B000B
:101EAC00B1FBF3F30133C3F30B0351E004234FE015
:101EBC007B689B68002B11D1FB68581E7B685968A6
:101ECC000B465B000B44B0FBF3F30133C3F30B0382
:101EDC00002B0CBF01230023DBB212E0FB68581E61
:101EEC007B6859680B469B000B4499000B44B0FB74
:101EFC00F3F30133C3F30B03002B0CBF01230023BB
:101F0C00DBB2002B01D0012322E07B689B68002B05
:101F1C000ED1FB68581E7B6859680B465B000B445E
:101F2C00B0FBF3F30133C3F30B0343F400430FE0B3
:101F3C00FB68581E7B6859680B469B000B44990044
:101F4C000B44B0FBF3F30133C3F30B0343F44043F3
:101F5C00796809681343CB617B681B681B6823F0A5
:101F6C00C0017B68DA697B681B6A1A437B681B6853
:101F7C000A431A607B681B689B6823F4034323F0B5
:101F8C00FF037A6811697A68D26811437A6812681B
:101F9C000B4393607B681B68DB6823F0FF017B6855
:101FAC005A697B689B691A437B681B680A43DA6031
:101FBC007B681B681A687B681B6842F001021A6018
:101FCC007B6800221A647B68202283F83D207B68A2
:101FDC0000221A637B68002283F83E2000231846F7
:101FEC001037BD4680BD00BFA08601007F841E0057
:101FFC00FF083D0083DE1B43D34D621080B588B0D3
:10200C0002AFF8607A601A460B467B8113463B811F
:10201C00FFF7A8FB7861FB6893F83D30DBB2202B0F
:10202C0040F0E0807B690093192301227049F86825
:10203C0000F064F90346002B01D00223D3E0FB68C7
:10204C0093F83C30012B01D10223CCE0FB68012238
:10205C0083F83C20FB681B681B6803F00103012B11
:10206C0007D0FB681B681A68FB681B6842F001020A
:10207C001A60FB681B681A68FB681B6822F4006214
:10208C001A60FB68212283F83D20FB68102283F83C
:10209C003E20FB6800221A64FB687A685A62FB686F
:1020AC003A895A85FB685B8D9AB2FB681A85FB6886
:1020BC00504ADA6279897B693A6AF86800F09CF8D0
:1020CC000346002B01D001238DE000233B61FB680C
:1020DC001B685B693B61FB681B689B693B613B69E7
:1020EC0066E07A69396AF86800F022FA0346002B38
:1020FC000DD0FB681B6C042B07D1FB681B681A689E
:10210C00FB681B6842F400721A6001236BE0FB68E9
:10211C005B6A1A78FB681B681A61FB685B6A5A1C5D
:10212C00FB685A62FB685B8D9BB2013B9AB2FB6801
:10213C005A85FB681B8D013B9AB2FB681A85FB68BC
:10214C001B685B6903F00403042B1BD1FB681B8D1C
:10215C00002B17D0FB685B6A1A78FB681B681A6146
:10216C00FB685B6A5A1CFB685A62FB685B8D9BB20E
:10217C00013B9AB2FB685A85FB681B8D013B9AB2F6
:10218C00FB681A857A69396AF86800F019FA03460F
:10219C00002B0DD0FB681B6C042B07D1FB681B6854
:1021AC001A68FB681B6842F400721A6001231AE07B
:1021BC00FB681B8D002B94D1FB681B681A68FB68AD
:1021CC001B6842F400721A60FB68202283F83D20E1
:1021DC00FB68002283F83E20FB68002283F83C2039
:1021EC00002300E0022318461837BD4680BD00BF0F
:1021FC00020010000000FFFF80B588B002AFF8604D
:10220C007A603B600B467B81FB68DB6A7B617B6998
:10221C00082B06D07B69012B03D07B6913F5803F1B
:10222C0008D1FB681B681A68FB681B6842F4807253
:10223C001A600BE0FB681B6B122B07D1FB681B6849
:10224C001A68FB681B6842F480721A603B68009342
:10225C007B6800224FF00111F86800F04FF803463C
:10226C00002B0DD0FB681B681B6803F48073B3F55F
:10227C00807F03D1FB684FF400721A64032335E0AE
:10228C00FB681B69B3F5804F08D17B89DBB21A461A
:10229C00FB681B6802F0FE021A611BE07B89DB11F4
:1022AC00DBB203F00603DBB263F00F03DAB2FB68B8
:1022BC001B681A613B687A680E49F86800F098F858
:1022CC000346002B01D0012310E07B89DAB2FB68B6
:1022DC001B681A613B687A680749F86800F088F84F
:1022EC000346002B01D0012300E0002318461837C9
:1022FC00BD4680BD080001000200010080B584B01D
:10230C0000AFF860B9603B601346FB7148E03B6876
:10231C00B3F1FF3F44D0FFF725FA0246BB69D31A4D
:10232C003A689A4202D33B68002B39D1BB681B0C2C
:10233C00DBB2012B0DD1FB681B685B69DA43BB6810
:10234C0013409BB2002B0CBF01230023DBB21A46B7
:10235C000CE0FB681B689B69DA43BB6813409BB2BB
:10236C00002B0CBF01230023DBB21A46FB799A42E7
:10237C0016D1FB6800221A63FB68202283F83D20EB
:10238C00FB68002283F83E20FB681B6C43F02002A4
:10239C00FB681A64FB68002283F83C20012323E0CD
:1023AC00BB681B0CDBB2012B0DD1FB681B685B6996
:1023BC00DA43BB6813409BB2002B0CBF01230023F4
:1023CC00DBB21A460CE0FB681B689B69DA43BB68FE
:1023DC0013409BB2002B0CBF01230023DBB21A4627
:1023EC00FB799A4293D0002318461037BD4680BD26
:1023FC0080B584B000AFF860B9607A603B6071E082
:10240C00FB681B685B6903F48063B3F5806F23D1B1
:10241C00FB681B681A68FB681B6842F400721A6040
:10242C00FB681B686FF480625A61FB6800221A63B8
:10243C00FB68202283F83D20FB68002283F83E20B5
:10244C00FB681B6C43F00402FB681A64FB680022F7
:10245C0083F83C20012367E07B68B3F1FF3F41D058
:10246C00FFF780F902463B68D31A7A689A4202D386
:10247C007B68002B36D1BB681B0CDBB2012B0CD15B
:10248C00FB681B685B69DA43BB6813409BB2002B8B
:10249C0014BF01230023DBB20BE0FB681B689B69B4
:1024AC00DA43BB6813409BB2002B14BF01230023FB
:1024BC00DBB2002B16D0FB6800221A63FB682022CB
:1024CC0083F83D20FB68002283F83E20FB681B6CE0
:1024DC0043F02002FB681A64FB68002283F83C205E
:1024EC00012321E0BB681B0CDBB2012B0CD1FB6878
:1024FC001B685B69DA43BB6813409BB2002B14BFAB
:10250C0001230023DBB20BE0FB681B689B69DA43F9
:10251C00BB6813409BB2002B14BF01230023DBB21A
:10252C00002B7FF46DAF002318461037BD4680BDDD
:10253C0080B584B000AFF860B9607A6034E0F868B8
:10254C0000F086F80346002B01D0012334E0BB6871
:10255C00B3F1FF3F28D0FFF705F902467B68D31A89
:10256C00BA689A4202D3BB68002B1DD1FB681B686A
:10257C005B6903F08003802B16D0FB6800221A6382
:10258C00FB68202283F83D20FB68002283F83E2064
:10259C00FB681B6C43F02002FB681A64FB6800228A
:1025AC0083F83C20012307E0FB681B685B6903F0A0
:1025BC008003802BC3D1002318461037BD4680BD45
:1025CC0080B584B000AFF860B9607A6034E0F86828
:1025DC0000F03EF80346002B01D0012334E0BB6829
:1025EC00B3F1FF3F28D0FFF7BDF802467B68D31A42
:1025FC00BA689A4202D3BB68002B1DD1FB681B68DA
:10260C005B6903F00403042B16D0FB6800221A63E9
:10261C00FB68202283F83D20FB68002283F83E20D3
:10262C00FB681B6C43F02002FB681A64FB680022F9
:10263C0083F83C20012307E0FB681B685B6903F00F
:10264C000403042BC3D1002318461037BD4680BDAC
:10265C0080B483B000AF78607B681B685B6903F45F
:10266C008063B3F5806F1BD17B681B686FF480624D
:10267C005A617B6800221A637B68202283F83D2014
:10268C007B68002283F83E207B681B6C43F00402BD
:10269C007B681A647B68002283F83C20012300E0ED
:1026AC00002318460C37BD4680BC704780B586B0F9
:1026BC0000AF78607B68002B01D1012372E27B684C
:1026CC001B6803F00103002B00F08780924B5B68C2
:1026DC0003F00C03042B0CD08F4B5B6803F00C0342
:1026EC00082B12D18C4B5B6803F48033B3F5803F1D
:1026FC000BD1894B1B6803F40033002B6CD07B6827
:10270C005B68002B68D101234CE27B685B68B3F5F6
:10271C00803F06D1804B1B687F4A43F480331360A3
:10272C002EE07B685B68002B0CD17B4B1B687A4AD4
:10273C0023F480331360784B1B68774A23F480238F
:10274C0013601DE07B685B68B3F5A02F0CD1724B56
:10275C001B68714A43F4802313606F4B1B686E4AED
:10276C0043F4803313600BE06B4B1B686A4A23F411
:10277C0080331360684B1B68674A23F48023136013
:10278C007B685B68002B13D0FEF7ECFF386108E028
:10279C00FEF7E8FF02463B69D31A642B01D90323E9
:1027AC0000E25D4B1B6803F40033002BF0D014E007
:1027BC00FEF7D8FF386108E0FEF7D4FF02463B690C
:1027CC00D31A642B01D90323ECE1534B1B6803F49C
:1027DC000033002BF0D100E000BF7B681B6803F0D6
:1027EC000203002B63D04C4B5B6803F00C03002BF3
:1027FC000BD0494B5B6803F00C03082B1CD1464BE8
:10280C005B6803F48033002B16D1434B1B6803F039
:10281C000203002B05D07B681B69012B01D001231F
:10282C00C0E13D4B1B6823F0F8027B685B69DB0061
:10283C00394913430B603AE07B681B69002B20D0AD
:10284C00364B01221A60FEF78DFF386108E0FEF767
:10285C0089FF02463B69D31A022B01D90323A1E15C
:10286C002D4B1B6803F00203002BF0D02A4B1B6886
:10287C0023F0F8027B685B69DB00274913430B608C
:10288C0015E0264B00221A60FEF76CFF386108E059
:10289C00FEF768FF02463B69D31A022B01D90323CA
:1028AC0080E11D4B1B6803F00203002BF0D17B6809
:1028BC001B6803F00803002B3AD07B689B69002B44
:1028CC0019D0174B01221A60FEF74CFF386108E053
:1028DC00FEF748FF02463B69D31A022B01D90323AA
:1028EC0060E10D4B5B6A03F00203002BF0D001207A
:1028FC0000F0BAFA1CE00A4B00221A60FEF732FF15
:10290C0038610FE0FEF72EFF02463B69D31A022B0B
:10291C0008D9032346E100BF0010024000004242E8
:10292C0080044242924B5B6A03F00203002BE9D114
:10293C007B681B6803F00403002B00F0A6800023C7
:10294C00FB758B4BDB6903F08053002B0DD1884B4F
:10295C00DB69874A43F08053D361854BDB6903F015
:10296C008053BB60BB680123FB75824B1B6803F46F
:10297C008073002B18D17F4B1B687E4A43F4807305
:10298C001360FEF7EFFE386108E0FEF7EBFE02463F
:10299C003B69D31A642B01D9032303E1754B1B68E4
:1029AC0003F48073002BF0D07B68DB68012B06D11D
:1029BC006F4B1B6A6E4A43F0010313622DE07B6878
:1029CC00DB68002B0CD16A4B1B6A694A23F00103AC
:1029DC001362674B1B6A664A23F0040313621CE004
:1029EC007B68DB68052B0CD1614B1B6A604A43F09A
:1029FC00040313625E4B1B6A5D4A43F001031362CE
:102A0C000BE05B4B1B6A5A4A23F001031362584BD1
:102A1C001B6A574A23F0040313627B68DB68002BA4
:102A2C0015D0FEF79FFE38610AE0FEF79BFE0246CA
:102A3C003B69D31A41F28832934201D90323B1E0A6
:102A4C004B4B1B6A03F00203002BEED014E0FEF795
:102A5C0089FE38610AE0FEF785FE02463B69D31A0F
:102A6C0041F28832934201D903239BE0404B1B6A0D
:102A7C0003F00203002BEED1FB7D012B05D13C4B67
:102A8C00DB693B4A23F08053D3617B68DB69002B05
:102A9C0000F08780364B5B6803F00C03082B61D089
:102AAC007B68DB69022B46D1334B00221A60FEF7A0
:102ABC0059FE386108E0FEF755FE02463B69D31A11
:102ACC00022B01D903236DE0294B1B6803F0007323
:102ADC00002BF0D17B681B6AB3F5803F08D1244BE7
:102AEC005B6823F400327B689B68214913434B607D
:102AFC001F4B5B6823F474127B68196A7B685B6AF2
:102B0C000B431B4913434B601B4B01221A60FEF70E
:102B1C0029FE386108E0FEF725FE02463B69D31A10
:102B2C00022B01D903233DE0114B1B6803F000730A
:102B3C00002BF0D035E0104B00221A60FEF712FE8D
:102B4C00386108E0FEF70EFE02463B69D31A022BF1
:102B5C0001D9032326E0064B1B6803F00073002BFE
:102B6C00F0D11EE07B68DB69012B07D1012319E052
:102B7C000010024000700040600042420B4B5B684A
:102B8C00FB60FB6803F480327B681B6A9A4206D1B7
:102B9C00FB6803F470127B685B6A9A4201D00123D4
:102BAC0000E0002318461837BD4680BD00100240D7
:102BBC0080B584B000AF786039607B68002B01D1A0
:102BCC000123D0E06A4B1B6803F007033A689A4272
:102BDC0010D9674B1B6823F0070265493B68134308
:102BEC000B60634B1B6803F007033A689A4201D0F1
:102BFC000123B8E07B681B6803F00203002B20D094
:102C0C007B681B6803F00403002B05D0594B5B68F1
:102C1C00584A43F4E06353607B681B6803F0080375
:102C2C00002B05D0534B5B68524A43F460535360FE
:102C3C00504B5B6823F0F0027B689B684D49134353
:102C4C004B607B681B6803F00103002B40D07B6852
:102C5C005B68012B07D1474B1B6803F40033002B37
:102C6C0015D101237FE07B685B68022B07D1414BB8
:102C7C001B6803F00073002B09D1012373E03D4B5B
:102C8C001B6803F00203002B01D101236BE0394BCD
:102C9C005B6823F003027B685B68364913434B6027
:102CAC00FEF760FDF8600AE0FEF75CFD0246FB688B
:102CBC00D31A41F28832934201D9032353E02D4BAE
:102CCC005B6803F00C027B685B689B009A42EBD15B
:102CDC00274B1B6803F007033A689A4210D2244B27
:102CEC001B6823F0070222493B6813430B60204BFF
:102CFC001B6803F007033A689A4201D0012332E0C3
:102D0C007B681B6803F00403002B08D0194B5B682D
:102D1C0023F4E0627B68DB68164913434B607B68E5
:102D2C001B6803F00803002B09D0124B5B6823F4DB
:102D3C0060527B681B69DB000E4913434B6000F04B
:102D4C0021F802460B4B5B681B0903F00F030A4981
:102D5C00CB5C22FA03F3094A1360094B1B68184633
:102D6C00FEF7BEFC002318461037BD4680BD00BFE1
:102D7C000020024000100240B04000086400002017
:102D8C006800002080B487B000AF0023FB600023F4
:102D9C00BB6000237B6100237B6000233B611E4BE7
:102DAC005B68FB60FB6803F00C03042B02D0082B60
:102DBC0003D027E0194B3B6127E0FB689B0C03F029
:102DCC000F03174AD35C7B60FB6803F48033002B42
:102DDC0010D0114B5B685B0C03F00103114AD35C00
:102DEC00BB607B680D4A03FB02F2BB68B2FBF3F3DA
:102DFC007B6104E07B680C4A02FB03F37B617B691B
:102E0C003B6102E0054B3B6100BF3B6918461C3738
:102E1C00BD4680BC704700BF0010024000127A0013
:102E2C00C8400008D840000800093D0080B400AF3D
:102E3C00024B1B681846BD4680BC704764000020DE
:102E4C0080B500AFFFF7F2FF0246054B5B681B0A2B
:102E5C0003F007030349CB5C22FA03F3184680BD49
:102E6C0000100240C040000880B485B000AF78600C
:102E7C000A4B1B680A4AA2FB03235B0A7A6802FB13
:102E8C0003F3FB6000BFFB685A1EFA60002BF9D1FC
:102E9C0000BF00BF1437BD4680BC704764000020E3
:102EAC00D34D621080B582B000AF78607B68002B88
:102EBC0001D1012341E07B6893F83D30DBB2002B5C
:102ECC0006D17B68002283F83C207868FEF73AFB39
:102EDC007B68022283F83D207B681A687B68043388
:102EEC001946104600F05CFA7B68012283F84620F4
:102EFC007B68012283F83E207B68012283F83F2007
:102F0C007B68012283F840207B68012283F84120F2
:102F1C007B68012283F842207B68012283F84320DE
:102F2C007B68012283F844207B68012283F84520CA
:102F3C007B68012283F83D20002318460837BD46E4
:102F4C0080BD000080B485B000AF78607B6893F8DA
:102F5C003D30DBB2012B01D001233AE07B68022229
:102F6C0083F83D207B681B68DA687B681B6842F03D
:102F7C000102DA607B681B68184A93420ED07B68AA
:102F8C001B68B3F1804F09D07B681B68144A9342CD
:102F9C0004D07B681B68134A934211D17B681B6871
:102FAC009B6803F00703FB60FB68062B10D07B6863
:102FBC001B681A687B681B6842F001021A6007E004
:102FCC007B681B681A687B681B6842F001021A60F8
:102FDC00002318461437BD4680BC7047002C0140B6
:102FEC00000400400008004080B584B000AF786059
:102FFC007B681B68DB68FB607B681B681B69BB60BC
:10300C00BB6803F00203002B20D0FB6803F0020323
:10301C00002B1BD07B681B686FF002021A617B6867
:10302C0001221A777B681B689B6903F00303002B52
:10303C0003D0786800F098F905E0786800F08BF917
:10304C00786800F09AF97B6800221A77BB6803F065
:10305C000403002B20D0FB6803F00403002B1BD0CF
:10306C007B681B686FF004021A617B6802221A7776
:10307C007B681B689B6903F44073002B03D0786852
:10308C0000F072F905E0786800F065F9786800F0F6
:10309C0074F97B6800221A77BB6803F00803002BD5
:1030AC0020D0FB6803F00803002B1BD07B681B6847
:1030BC006FF008021A617B6804221A777B681B6820
:1030CC00DB6903F00303002B03D0786800F04CF9A4
:1030DC0005E0786800F03FF9786800F04EF97B68FD
:1030EC0000221A77BB6803F01003002B20D0FB687A
:1030FC0003F01003002B1BD07B681B686FF01002D1
:10310C001A617B6808221A777B681B68DB6903F4F9
:10311C004073002B03D0786800F026F905E078683E
:10312C0000F019F9786800F028F97B6800221A770A
:10313C00BB6803F00103002B0CD0FB6803F0010308
:10314C00002B07D07B681B686FF001021A6178684E
:10315C00FEF764F8BB6803F08003002B0CD0FB680F
:10316C0003F08003002B07D07B681B686FF0800294
:10317C001A61786800F07FFABB6803F04003002BFB
:10318C000CD0FB6803F04003002B07D07B681B6856
:10319C006FF040021A61786800F0F8F8BB6803F031
:1031AC002003002B0CD0FB6803F02003002B07D06E
:1031BC007B681B686FF020021A61786800F052FA85
:1031CC0000BF1037BD4680BD80B584B000AF7860BD
:1031DC0039600023FB737B6893F83C30012B01D1E1
:1031EC000223B4E07B68012283F83C207B68022236
:1031FC0083F83D207B681B689B68BB60BB6823F031
:10320C007703BB60BB6823F47F43BB607B681B68A0
:10321C00BA689A603B681B68B3F5005F3ED0B3F5A3
:10322C00005F00F28780B3F5805F00F08680B3F515
:10323C00805F7FD8702B1AD0702B7BD8602B50D02E
:10324C00602B77D8502B3CD0502B73D8402B58D0B8
:10325C00402B6FD8302B64D0302B6BD8202B60D008
:10326C00202B67D8002B5CD0102B5AD062E07B68E7
:10327C0018683B6899683B685A683B68DB6800F0E3
:10328C0074F97B681B689B68BB60BB6843F0770371
:10329C00BB607B681B68BA689A604FE07B681868F3
:1032AC003B6899683B685A683B68DB6800F05DF9DD
:1032BC007B681B689A687B681B6842F480429A6042
:1032CC003CE07B6818683B6859683B68DB681A46C9
:1032DC0000F0D4F87B681B685021184600F02BF9DD
:1032EC002CE07B6818683B6859683B68DB681A46B9
:1032FC0000F0F2F87B681B686021184600F01BF99F
:10330C001CE07B6818683B6859683B68DB681A46A8
:10331C0000F0B4F87B681B684021184600F00BF9EC
:10332C000CE07B681A683B681B681946104600F075
:10333C0002F903E00123FB7300E000BF7B6801226C
:10334C0083F83D207B68002283F83C20FB7B1846E9
:10335C001037BD4680BD80B483B000AF786000BF2D
:10336C000C37BD4680BC704780B483B000AF78602A
:10337C0000BF0C37BD4680BC704780B483B000AF33
:10338C00786000BF0C37BD4680BC704780B483B0FA
:10339C0000AF786000BF0C37BD4680BC70470000A2
:1033AC0080B485B000AF786039607B681B68FB60C7
:1033BC007B682F4A93420BD07B68B3F1804F07D0C8
:1033CC007B682C4A934203D07B682B4A934208D1EA
:1033DC00FB6823F07003FB603B685B68FA6813437F
:1033EC00FB607B68224A93420BD07B68B3F1804F21
:1033FC0007D07B681F4A934203D07B681E4A9342D6
:10340C0008D1FB6823F44073FB603B68DB68FA6807
:10341C001343FB60FB6823F080023B685B6913433A
:10342C00FB607B68FA681A603B689A687B68DA62B2
:10343C003B681A687B689A627B680D4A934203D199
:10344C003B681A697B681A637B6801225A617B6846
:10345C001B6903F00103002B05D07B681B6923F06B
:10346C0001027B681A6100BF1437BD4680BC7047EF
:10347C00002C0140000400400008004080B487B0DC
:10348C0000AFF860B9607A60FB681B6A7B61FB680F
:10349C001B6A23F00102FB681A62FB689B693B61A3
:1034AC003B6923F0F0033B617B681B013A691343D2
:1034BC003B617B6923F00A037B617A69BB68134328
:1034CC007B61FB683A699A61FB687A691A6200BF92
:1034DC001C37BD4680BC704780B487B000AFF86025
:1034EC00B9607A60FB681B6A7B61FB681B6A23F01E
:1034FC001002FB681A62FB689B693B613B6923F411
:10350C0070433B617B681B033A6913433B617B69E6
:10351C0023F0A0037B61BB681B017A6913437B61B9
:10352C00FB683A699A61FB687A691A6200BF1C37BA
:10353C00BD4680BC704780B485B000AF7860396000
:10354C007B689B68FB60FB6823F07003FB603A6848
:10355C00FB68134343F00703FB607B68FA689A60CF
:10356C0000BF1437BD4680BC704780B487B000AF35
:10357C00F860B9607A603B60FB689B687B617B6933
:10358C0023F47F437B613B681A027B681A43BB6858
:10359C0013437A6913437B61FB687A699A6000BFB5
:1035AC001C37BD4680BC704780B485B000AF7860D6
:1035BC0039607B6893F83C30012B01D1022346E043
:1035CC007B68012283F83C207B68022283F83D2033
:1035DC007B681B685B68FB607B681B689B68BB60D7
:1035EC00FB6823F07003FB603B681B68FA681343AD
:1035FC00FB607B681B68FA685A607B681B68164A1C
:10360C0093420ED07B681B68B3F1804F09D07B6866
:10361C001B68124A934204D07B681B68104A934281
:10362C000CD1BB6823F08003BB603B685B68BA6855
:10363C001343BB607B681B68BA689A607B68012285
:10364C0083F83D207B68002283F83C200023184639
:10365C001437BD4680BC7047002C0140000400406C
:10366C000008004080B483B000AF786000BF0C3716
:10367C00BD4680BC704780B483B000AF786000BF9B
:10368C000C37BD4680BC7047014B1868704700BFB3
:10369C007000002070B500260C4D0D4C641BA4105E
:1036AC00A64209D100F09CFC00260A4D0A4C641B72
:1036BC00A410A64205D170BD55F8043B98470136BD
:1036CC00EEE755F8043B98470136F2E71041000845
:1036DC001041000810410008144100080346024440
:1036EC00934200D1704703F8011BF9E70EB46FF059
:1036FC00004100B59CB01DAB02900690079104915F
:10370C000848094953F8042B0591006802A9019354
:10371C0000F068F80022029B1A701CB05DF804EBF4
:10372C0003B07047700000200802FFFF2DE9F0473E
:10373C008E6882469E420C4690461F4638D88A892F
:10374C0012F4906F32D0256809690133A5EB010999
:10375C0065694B4405EB450505EBD5756D109D4230
:10376C0038BF1D46530531D5294600F06FFB064680
:10377C0050B90C234FF0FF30CAF80030A38943F046
:10378C004003A381BDE8F0874A46216900F0CEFAD8
:10379C00A38923F4906343F08003A38126614E44F4
:1037AC0026603E466561A5EB0905A560BE4200D9C1
:1037BC003E4632464146206800F0C6FAA368002017
:1037CC009B1BA360236833442360DBE72A4600F08D
:1037DC00B1FB06460028E1D15046216900F0CEFA33
:1037EC00C7E700002DE9F04F98468B8907461B066A
:1037FC000D4614469DB00ED50B6963B9402100F0FF
:10380C0025FB2860286120B90C233B604FF0FF306A
:10381C00D1E040236B610023099320238DF82930DC
:10382C0030234FF00109CDF80C80DFF8A4818DF81E
:10383C002A3023469A4613F8012B0AB1252AF9D1CE
:10384C00BAEB040B0BD05B46224629463846FFF7F1
:10385C006DFF013000F0AA80099A5A4409929AF837
:10386C000030002B00F0A28000234FF0FF32CDE996
:10387C0005230AF1010A049307938DF853301A9328
:10388C005446052214F8011B514800F041FA049AE1
:10389C00D8B9D00644BF20238DF85330110744BF4C
:1038AC002B238DF853309AF800302A2B15D0544620
:1038BC0000204FF00A0C079A214611F8013B303BCF
:1038CC00092B4ED9B0B1079214E0A0EB080309FA0A
:1038DC0003F31343A2460493D2E7039B191D1B6801
:1038EC000391002BBBBF5B4242F00202079307938C
:1038FC00B8BF049223782E2B0CD163782A2B35D1A8
:10390C00039B02341A1D1B680392002BB8BF4FF0A7
:10391C00FF330593DFF8BCA003225046217800F05A
:10392C00F7F940B14023A0EB0A0003FA00F0049B26
:10393C0001340343049314F8011B062226488DF826
:10394C00281000F0E5F9002838D0244B1BBB039B52
:10395C00073323F0070308330393099B334409937C
:10396C0067E70C4601200CFB0232A5E700234FF061
:10397C000A0C194601340593204610F8012B303AF5
:10398C00092A03D9002BC5D00591C3E704460123AE
:10399C000CFB0121F0E703AB00932A463846104B91
:1039AC0004A9AFF30080421C0646D6D1AB895B0656
:1039BC003FF52CAF09981DB0BDE8F08F03AB009319
:1039CC002A463846064B04A900F07CF8EBE700BF0A
:1039DC00DA400008E0400008E44000080000000065
:1039EC00393700082DE9F047164699468A680B6965
:1039FC0007469342B8BF1346336091F843200C46F8
:103A0C00DDF820800AB1013333602368990642BF88
:103A1C00336802333360256815F0060506D104F1CE
:103A2C00190AE36832689B1AAB4228DC94F84320ED
:103A3C00131E226818BF012392062DD4494638461E
:103A4C0004F14302C047013020D02368E56803F03D
:103A5C000603042B18BF002532684FF00006A3683C
:103A6C0008BFAD1A226908BF25EAE5759342C4BFA9
:103A7C009B1AED181A34B5421AD1002008E0012324
:103A8C00524649463846C047013003D14FF0FF300B
:103A9C00BDE8F0870135C4E73020E11881F8430018
:103AAC005A1C94F845102244023382F84310C5E79F
:103ABC000123224649463846C0470130E6D001363C
:103ACC00D9E700002DE9FF470F7E9146782F8046FD
:103ADC000C469A460C9D01F1430207D8622F0AD876
:103AEC00002F00F0D980582F00F0A48004F142057B
:103AFC0084F842703AE0A7F16303152BF6D801A1C4
:103B0C0051F823F0693B00087D3B0008F93A0008A6
:103B1C00F93A0008F93A0008F93A00087D3B000828
:103B2C00F93A0008F93A0008F93A0008F93A00089D
:103B3C008B3C0008AD3B00086D3C0008F93A0008CE
:103B4C00F93A0008AD3C0008F93A0008AD3B000812
:103B5C00F93A0008F93A0008753C00082B681A1D60
:103B6C001B682A6004F1420584F842300123A4E06A
:103B7C0020682968060601F104030AD50E682B603B
:103B8C00002E03DA2D23764284F843300A235E4854
:103B9C0019E00E6810F0400F2B6018BF36B2EFE73B
:103BAC002B682068191D2960010601D51E6802E0EA
:103BBC004606FBD51E886F2F0CBF08230A235248DC
:103BCC00002184F843106568002DA8BF2168A5600A
:103BDC00A4BF21F0040121600EB9002D4DD0154673
:103BEC00B6FBF3F103FB1167C75D05F8017D3746A2
:103BFC00BB420E46F4D9082B0BD12368DE0708D53F
:103C0C00236961689942DEBF302305F8013C05F158
:103C1C00FF35521B22614B4621464046CDF800A091
:103C2C0003AAFFF7DFFE01304CD14FF0FF3004B098
:103C3C00BDE8F087344881F845702968236851F84D
:103C4C00046B29601D0614D5DF0744BF43F0200325
:103C5C0023601EB9236823F0200323601023AFE7F1
:103C6C00236843F0200323607823284884F84530E8
:103C7C00E3E7590648BFB6B2E6E71546BBE72B6843
:103C8C002668181D6169286035061B6801D5196006
:103C9C0002E07006FBD51980002315462361BAE7B4
:103CAC002B6800211A1D2A601D686268284600F0E6
:103CBC002FF808B1401B606063682361002384F80F
:103CCC004330A8E72A46494640462369D04701308D
:103CDC00ABD023689B0713D4E068039B9842B8BF12
:103CEC001846A4E70123324649464046D0470130E6
:103CFC009BD00135E36803995B1AAB42F2DCEBE72E
:103D0C00002504F11906F5E7EB400008FC4000081B
:103D1C00034610B5C9B202449342184601D10020A3
:103D2C0003E0047801338C42F6D110BD0A44914271
:103D3C0000F1FF3300D1704710B511F8014B9142DF
:103D4C0003F8014FF9D110BD884210B501EB020404
:103D5C0002D98442234607D8431EA14208D011F849
:103D6C00012B03F8012FF8E7014602448A4200D1E7
:103D7C0010BD13F8014D02F8014DF7E738B50546B3
:103D8C00002940D051F8043C0C1F002BB8BFE4189C
:103D9C0000F010F91C4A136833B9636014602846AC
:103DAC00BDE8384000F00CB9A34208D920682118AE
:103DBC008B4201BF19685B6809182160EDE71A4650
:103DCC005B680BB1A342FAD911685018A0420BD111
:103DDC0020680144501883421160E0D118685B6878
:103DEC00014411605360DAE702D90C232B60D6E74B
:103DFC00206821188B4201BF19685B680918216083
:103E0C0063605460CBE738BDD002002070B50E4E15
:103E1C000C463168054611B900F0BCF830602146FB
:103E2C00284600F0B7F8431C0AD0C41C24F0030445
:103E3C00A04207D0211A284600F0ACF8013001D17D
:103E4C004FF0FF34204670BDD40200202DE9F04124
:103E5C00CD1C25F0030508350C2D38BF0C25002D85
:103E6C00074601DBA94205D90C2300263B603046EE
:103E7C00BDE8F0812E4E00F09DF833681C4634BB33
:103E8C0029463846FFF7C2FF431C04464DD134681F
:103E9C002646002E40D123683146384604EB0308F1
:103EAC0000F078F880453AD1216803356D1A25F079
:103EBC00030508350C2D38BF0C2538462946FFF76D
:103ECC00A5FF01302BD023682B4423600EE0226821
:103EDC00521B1ED40B2A16D96119A342256018BF98
:103EEC005960636808BF316062514B60384604F119
:103EFC000B0600F065F826F00706231DF21AB6D063
:103F0C009B1BA350B3E76268A3420CBF32605A609C
:103F1C00ECE723466468B2E734467668B9E70C23CD
:103F2C0038463B6000F04CF8A1E72560DEE700BFA7
:103F3C00D00200202DE9F041804614460E4621B9EE
:103F4C001146BDE8F041FFF781BF2AB9FFF716FF14
:103F5C0025462846BDE8F08100F038F88442074633
:103F6C0002D8B4EB500F12D821464046FFF76EFF33
:103F7C0005460028EDD0BC422246314628BF3A46C1
:103F8C00FFF7D4FE31464046FFF7F8FEE1E7354631
:103F9C00DFE7000038B50023054D044608462B60CA
:103FAC00FDF726FB431C02D12B6803B1236038BDFF
:103FBC00D8020020014800F011B800BFDC0200203C
:103FCC00014800F00CB800BFDC02002051F8043CA2
:103FDC00181F002BBCBF0B58C01870477047704798
:103FEC00F8B500BFF8BC08BC9E467047F8B500BFDA
:083FFC00F8BC08BC9E467047AA
:1040040056414C4944202020200000005741524E84
:10401400494E47200000000025640000523A000089
:1040240020202000593A000020000000473A0000F8
:1040340020202020202020002000000025640000F3
:10404400726F616431000000726F616432000000BD
:1040540020202020202020002020202000000000FC
:104064004D414E55414C202020202000202020206E
:104074002020200020202020000000004E49474836
:1040840054000000202020202020200020207365E0
:104094006C656374206D6F6465202020000000004F
:1040A400256400006D6F64650000000000000000DE
:1040B40000000000010203040607080900000000D4
:1040C4000102030402030405060708090A0B0C0D88
:1040D4000E0F10100102232D302B2000686C4C00B1
:1040E40065666745464700303132333435363738F4
:1040F4003941424344454600303132333435363752
:0C410400383961626364656600000000E9
:044110003101000871
:044114000D01000891
:104118000100000000000000000000000000000096
:104128000100000000000000000000000000000086
:104138000100000000000000000000000000000076
:104148000100000000000000000000000000000066
:10415800F4010000140000001D0000002100000010
:10416800050000000200000003000000010000003C
:104178001E00000000127A0010000000010000007C
:104188007400002000000000000000000000000093
:104198000000000000000000000000000000000017
:1041A8000000000000000000000000000000000007
:1041B80000000000000000000000000000000000F7
:1041C80000000000000000000000000000000000E7
:1041D80000000000000000000000000000000000D7
:0441E80000000000D3
:040000050800167564
:00000001FF
